:020000040800F2
:10000000A04700205D020008773700082B32000867
:1000100075370008610900082D4300080000000042
:100020000000000000000000000000009D0100082A
:100030005D0C000800000000F90100085D390008AF
:1000400077020008770200087702000877020008AC
:10005000770200087702000877020008770200089C
:10006000770200087702000877020008770200088C
:10007000770200087702000877020008770200087C
:1000800077020008770200082D08000877020008B0
:100090006509000877020008770200087702000867
:1000A000770200087702000877020008770200084C
:1000B00077020008853A00087702000877020008F6
:1000C000770200087702000877020008770200082C
:1000D0007702000877020008770200085140000804
:1000E000770200087702000877020008770200080C
:1000F00077020008770200087702000877020008FC
:1001000077020008770200087702000877020008EB
:10011000F93C000877020008253B0008713B000805
:1001200077020008770200087702000877020008CB
:1001300077020008770200087702000877020008BB
:1001400077020008770200087702000877020008AB
:10015000770200087702000877020008770200089B
:10016000770200087702000877020008770200088B
:1001700077020008770200087702000800000000FC
:100180007702000877020008DFF80CD000F02AFBA5
:1001900000480047894D0008A04700202C4B1968F3
:1001A0000868B0E8F04F80F30988BFF36F8F4FF015
:1001B000000080F3118870470000000008480068C4
:1001C000006880F308884FF0000080F3148862B65E
:1001D00061B6BFF34F8FBFF36F8F00DF00BF00BF6B
:1001E00008ED00E0DFF80C00016841F470010160E7
:1001F000704700BF88ED00E0EFF30980BFF36F8F19
:10020000134B1A681EF0100F08BF20ED108A20E96A
:10021000F04F106009B44FF0500080F31188BFF325
:100220004F8FBFF36F8F05F04DFB4FF0000080F351
:10023000118809BC19680868B0E8F04F1EF0100F6B
:1002400008BFB0EC108A80F30988BFF36F8F704746
:10025000B4000020EFF30580704700000648804797
:1002600006480047FEE7FEE7FEE7FEE7FEE7FEE79B
:10027000FEE7FEE7FEE7FEE7693A000889010008AD
:100280002DE9F05F0546002092469B4688460646CB
:10029000814640241BE0284641464746224600F05E
:1002A000EEF853465A46C01A914110D311461846EB
:1002B000224600F0D5F82D1A67EB01084F4622467A
:1002C0000120002100F0CCF817EB00094E41201E60
:1002D000A4F10104DFDC484631462A464346BDE826
:1002E000F09F40EA01039B0703D009E008C9121FF1
:1002F00008C0042AFAD203E011F8013B00F8013BE0
:10030000521EF9D27047D2B201E000F8012B491E0B
:10031000FBD270470022F6E710B513460A460446A2
:100320001946FFF7F0FF204610BD2DE9FE4F81EA88
:10033000030404F0004421F0004100944FF0000B4E
:1003400023F0004350EA01045ED052EA03045BD07C
:10035000C3F30A54C1F30A552C44A4F2F3340194B4
:10036000A0FB0254C1F3130141F48011C3F3130342
:1003700043F4801301FB024400FB034E840A970AF6
:1003800044EA815447EA8357A4FB076802958D0A23
:1003900005FB07854FEA932C04FB0C542705029DAF
:1003A0004FEA065847EA1637B5EB08056EEB070C1F
:1003B000870E920E47EA811742EA8312A7FB0201D9
:1003C000B6EB0B0164EB00042B0D43EA0C335E1813
:1003D00044EB1C50DA465146E7FB0201C5F3130417
:1003E0004FEA0B3343EA14534FEA0432019C43EAC9
:1003F0000603A4F10C040294009CCDE900B400F0C3
:100400005DF803B0BDE8F08F00200146F9E700F089
:10041000004230F000400AD0C10D01F56071C0F318
:10042000160042EA0151C2084007114370470020FC
:100430000146704730B50B460146002020220124BA
:1004400009E021FA02F59D4205D303FA02F5491BA2
:1004500004FA02F52844151EA2F10102F1DC30BDB8
:10046000202A04DB203A00FA02F100207047914074
:10047000C2F1200320FA03F3194390407047202A69
:1004800004DB203A21FA02F00021704721FA02F33E
:10049000D040C2F12002914008431946704710B580
:1004A000141E73F1000408DA401C41F10001921897
:1004B0005B411A4301D120F0010010BD2DE9F04D40
:1004C00092469B4611B1B1FA81F202E0B0FA80F295
:1004D00020329046FFF7C4FF04460F4640EA0A0068
:1004E00041EA0B0153465A46084313D0114653EADA
:1004F000010019D0C8F140025046FFF7C0FF054681
:100500000E46504659464246FFF7AAFF084305D01B
:10051000012004E020463946BDE8F08D0020054367
:1005200046EAE0762C4337430A986305E40AA0EBD9
:1005300008000022FD0A44EA47540A3002D5002090
:100540000146E9E7010510196941DDE9084500198F
:100550006941BDE8F04DA2E72DE9FE4F804681EAF2
:100560000300C00F0C46009021F0004123F000452D
:10057000B8EB0200A94105D24046214690461C46F0
:100580000B46024623F00040104347D0270DC7F327
:100590000A00C3F30A510290401A019040286BDA16
:1005A000C3F3130040F4801B0098924620B100234F
:1005B000D2EB030A63EB0B0B01985946C0F14002E2
:1005C0005046FFF74DFF06460D4650465946019AE4
:1005D00000F01AF910EB08006141002487EA11527B
:1005E00084EAE7731A4340D0009A62B3019A012A61
:1005F0004FEA075215DC001B61EB02014FF000428D
:1006000002EA0752CDE90042001C41F58011324652
:100610002B46FFF753FF03B0BDE8F08F404621465D
:10062000F9E7001B61EB0201001C41F58013001883
:100630005B412018A2F5001747EB030140EAD57093
:10064000B6196D4111E06D084FEA360645EAC075EE
:100650004FEA0752001B61EB0201001C41F58011BB
:1006600049084FEA30000019514132462B4603B089
:10067000BDE8F04FFFF713BF0098012240000023B0
:10068000D0EB020263EBE073009821464FEAE0747E
:10069000B8EB000061EB0401E9E783F000435BE79E
:1006A00081F0004158E72DE9F04D81EA030404F0A0
:1006B000004B21F0004514464FF0000A23F00041A2
:1006C00050EA050220D054EA01021DD0C5F30A57B2
:1006D0000246C5F31303C1F31300C1F30A5640F4F5
:1006E000801543F48013A7EB0608101BD64608F2CA
:1006F000FD3873EB050002D308F1010801E0921800
:100700005B41B8F1000F03DA00200146BDE8F08D2F
:1007100000204FF48011064684460EE0171B73EB51
:10072000050705D3121B63EB050306434CEA010CD6
:1007300049084FEA300092185B4150EA0107EDD1B9
:1007400052EA030012D082EA040083EA050108435A
:1007500005D0101BAB4106D20122002306E0002287
:100760004FF0004302E06FF0010253101AEB060055
:100770004CEB085110EB0A0041EB0B01BDE8F04DCA
:10078000FFF78DBEC1F30A52C1F3130140F2FF33EC
:1007900041F480119A4202DA00200146704740F28B
:1007A00033439A42A2F2334202DC5242FFF767BE61
:1007B000FFF756BE30B5041E71F1000404DB4FF0A4
:1007C0000044404264EB0101141E73F1000405DB98
:1007D0001C464FF00043524263EB0403994208BFAA
:1007E000904230BD064C074D06E0E06840F0010342
:1007F00094E8070098471034AC42F6D3FFF7C8FCE2
:100800003463000854630008202A06DBCB17203A23
:1008100041FA02F043EAE07306E041FA02F3D04005
:10082000C2F120029140084319467047014800F088
:10083000B5BE0000C8040020464910B54A6822F43D
:1008400040324A604A6843681A434A6001684A680D
:1008500022F480724A6001684A68036942EA03220E
:100860004A6001684A6822F040724A6001684A683A
:1008700083681A434A6001688A6822F400628A60C9
:1008800001688A68C3681A438A60816A6FF070627F
:10089000D14201688A6822F070628A6001688A68C1
:1008A0000CD0836A1A438A6001688A6822F0405239
:1008B0008A6001688A68C36A1A4301E022F04052E4
:1008C0008A6001688A6822F002028A6001688A6888
:1008D000037E42EA43028A6090F8201000290168F2
:1008E0004A680FD042F400624A6001684A6822F404
:1008F00060424A6001684A68174C436A04EB43331C
:100900001A4301E022F400624A600168CA6A22F4D4
:100910007002CA620168CA6A838B104C04EB0353ED
:100920001A43CA6201688A6822F400728A60016808
:100930008A6890F8303042EA43228A6001688A6807
:1009400022F480628A6001688A68406942EA8020F5
:10095000886010BD0023014000E0FFFF0000F0FFB1
:10096000FEE70000014801F042B900001005002038
:1009700000B587B0134600220692A9B1082B00D912
:1009800008230090CDE903231220CDE901028DF860
:1009900014200A4606AB6946084800F0B3FF30B1A0
:1009A0006FF0010007B000BD4FF0FF30FAE70348D9
:1009B00001F007F90328FAD10020F3E71005002021
:1009C00000B58BB000200121CDE906010590009013
:1009D00001900290039004900E20CDE90810694622
:1009E000084800F0F3FF0028F9D1064801F054FB55
:1009F0000028FAD10221034800F072FF0028F9D143
:100A00000BB000BD1005002000F044FA00F0C0FC5F
:100A1000052004F031FAF7E730B500200B4A012336
:100A20000446A2F1140100BFC0EBC00502EB45056E
:100A3000AD89012D00EB80050D4401D92B7100E03B
:100A40002C71401C0328EFDD30BD0000FC010020AC
:100A500004F074FD03F02CF900F06AFA00F0B4F829
:100A600004F08CFD0A2004F007FAF1E72DE9F047C5
:100A7000002602F015FFFFF7CFFF00241C4FDFF820
:100A800074800125A14600BF04EB84003844C1787E
:100A900061B1012685704178002923D1817801292F
:100AA00020D1457058F8241013A019E0017959B1EC
:100AB000012685704178A9B98178012912D1457044
:100AC00058F8241017A00BE0494680F802904278AD
:100AD000012A07D182782AB9417058F824101CA045
:100AE00003F0AAFC641C032CCEDD3046BDE8F08781
:100AF000E801002064000020416E676C655374615A
:100B0000747573206F662025732069732045727297
:100B10006F72210A506C6561736520436865636B71
:100B2000210A000043616E537461747573206F660F
:100B3000202573206973204572726F72210A506CF0
:100B40006561736520436865636B210A00000000DE
:100B50002573206973204E6F726D616C210A00004D
:100B600070B50C4D002405F1440600BF05EB840070
:100B700090ED0C0A06EB8400D0ED000AB4EE600A9A
:100B8000F1EE10FA02D004A003F056FC641C032C12
:100B9000ECDD70BD600100206173646464646464B2
:100BA0006464646464646464646464646464646405
:100BB00064646464646464646464646464646464F5
:100BC000646464640A0000002DE9FC5FDFF878903B
:100BD0004FF0080A00244FF0FF3809EB8407032682
:100BE00097ED080A4546B5EEC00AF1EE10FA26D098
:100BF0001648514630F814B06846FFF78BFBE1B257
:100C0000684602F0B9FD06E0524669465846FFF7CD
:100C1000AFFE050002D5761EF6B2F5D27DB90C48BE
:100C200053465A4650F824100A4803F005FC514632
:100C3000684602F0C5FD9FED080A87ED080A641CAE
:100C4000032CCADDBDE8FC9FA4010020DC60000885
:100C50006400002030620008000000007047704708
:100C6000002229B101291AD002291BD04FF4407269
:100C70000E490B6823F440730B600B6813430B6041
:100C80000A6822F0F8020A600A68022303EBC00037
:100C900002430A60086840F48030086070474FF4EF
:100CA0008072E5E74FF40072E2E70000103C02407A
:100CB0001348016889050FD5016821F400710160AE
:100CC000016841F400610160016821F40061016084
:100CD000016841F400710160016849050FD50168A0
:100CE00021F480610160016841F480510160016874
:100CF00021F480510160016841F480610160704716
:100D0000003C024008490A6822F440720A600A68FE
:100D100042F004020A600A684FF4803343EA00207C
:100D200002430A6070470000103C0240064A136804
:100D300023F44073136013681360136843F00103D6
:100D40001360017070470000103C0240094910B563
:100D50000C6824F440740C600C6844F440740C601B
:100D60000C6844F001040C600260BFF36F8F4360B5
:100D700010BD0000103C0240074A136823F4407382
:100D80001360136843F480731360136843F0010326
:100D90001360018070470000103C0240074A13684E
:100DA00023F440731360136843F4007313601368F3
:100DB00043F001031360016070470000103C0240E3
:100DC00017490868C206174805D5C26942F01002E3
:100DD000C26110220A600A68920605D5C26942F013
:100DE0000802C26120220A600A68520605D5C2695B
:100DF00042F00402C26140220A600A68120605D568
:100E0000C26942F00202C26180220A600A68920747
:100E100005D5C26942F02002C26102200860704715
:100E20000C3C02409006002070B511490446002099
:100E3000C86101F019FB06460E4D09E0601C07D0A1
:100E400024B101F011FB801BA04201D9032070BD29
:100E50002868C003F2D42868C00701D001202860A8
:100E6000286810F0F200F2D0FFF7AAFF012070BD51
:100E7000900600200C3C024000EE901AF8EE600A4A
:100E800020EE200ABDEEC00A10EE101A0170090A09
:100E9000417070472DE9F047234EDFF88890002518
:100EA000A6F19C08C5EBC50706EB4704A078082807
:100EB00033D11E4830F8151036F8170081421CD186
:100EC00099F80400401CC0B289F80400282814D303
:100ED000642089F80400E01C642102F085FA08EB24
:100EE0008500824680ED000A601D642102F07CFAD4
:100EF0008AED040AA07808280FD10C4836F817109C
:100F0000083030F81500884207D1E01C642102F057
:100F10006BFA08EB850080ED0C0A6D1C032DC1DD1A
:100F2000BDE8F08700000020FC010020CC60000834
:100F30002DE9F04FE24DFF2487B0A878052816D0A0
:100F40002A4695F800C051782027DE4BDFF878B3A9
:100F5000D278DE4E4FF0310A4FF01009BCF1070F86
:100F60003AD2DFE80CF09364083AC8C8C400EC70C9
:100F700007B0BDE8F08F012877D003282CD1FF2AD5
:100F800001D14120E870E878402822D0412802D0E1
:100F9000422821D10EE096ED030A10EE100A984285
:100FA0001ADD96F84300002816D1322001F0BAF875
:100FB000422066E096ED010AC54910EE100A88420B
:100FC00007D996F8410020B9642001F0ABF8402021
:100FD000E870687803287CD08DE0012845D002288D
:100FE00044D1FF2A01D185F803A0E87830284AD0FF
:100FF000312802D032287ED10CE096ED020A10EEA4
:10100000100A584577D996F8420078BB322001F093
:1010100089F828E096ED000A10EE100A98426ADD81
:1010200096F8400010BB642001F07CF828E010B175
:10103000022803D05FE085F803905CE0FF2A01D12D
:1010400085F803A0E87830281DD0312802D0322856
:1010500051D10CE096ED020A10EE100A58454AD91B
:1010600096F8420010B932200BE062E032E096EDD3
:10107000000A10EE100A98423DDD96F8400048BB89
:101080003020E87037E002292FD034E0012832D137
:10109000FF2A01D11120E870E878112802D0202819
:1010A00029D120E096ED000A8A4810EE101A8142FC
:1010B00021DD96ED010A884910EE102A8A421AD9DC
:1010C00096ED020A10EE102A8A4214D996ED030A10
:1010D00001E00AE006E010EE101A81420BDD02F09A
:1010E000A5F830BB07E0012905D1EC7003E0012829
:1010F0001FD000289FD06879E978002488423FF407
:1011000037AFAB46B0EE000ADFED740A6F48B0EEC1
:10111000041A443032296BD012DCF1EE061AB1EE1B
:10112000082A202939D006DC102910D0112926D10F
:1011300026E0EF70DFE7302948D031291FD14CE09D
:1011400040295CD0412961D042297AD173E0DFED9A
:10115000640AC0ED000A9FED631A80ED011A80ED6C
:10116000021AC0ED030A9BF80010012920D1C0ED3E
:10117000081AC0ED091A80ED0A2A80ED0B2A60E0FA
:10118000DFED590AC0ED000A9FED581A80ED011AF3
:1011900080ED021AC0ED030A0AE0C0ED000AC0EDBE
:1011A000010AC0ED020AC0ED030A9BF8001021B14C
:1011B00080ED080A80ED090A38E080ED082A80ED0C
:1011C000092AC0ED0A1AC0ED0B1A3AE0F3EE040A40
:1011D000C0ED000A80ED080A33E0DFED451AC0EDEE
:1011E000001AC0ED010ADFED431AC0ED021A17E044
:1011F000BAEE040A80ED020A80ED0A1A21E0FBEE45
:10120000040AC0ED010A80ED090A1AE0DFED3A1A7E
:10121000C0ED000AC0ED011AC0ED020ADFED370A89
:10122000C0ED030A80ED081A80ED091A80ED0A0A64
:1012300080ED0B0A05E0B2EE040A80ED030A80EDB2
:101240000B1A2248443000EB8400814690ED040ADA
:1012500010EE100AFFF7DBF899ED080A07468846FA
:1012600010EE100AFFF7D3F899ED000A05460E4676
:1012700010EE100AFFF7CBF8814614488A4600EBBF
:10128000840090ED000A10EE100AFFF7C0F841EC60
:10129000100B02A90A4881E8E001CDE9009A643008
:1012A00053EC102B50F82410154803F0C5F8641CBB
:1012B000032CC6DD9BF803108BF8051058E60000E0
:1012C000000000200000204200005CC260010020FD
:1012D000000020C20000C8420000C8C20000000098
:1012E0000000B4420000B4C20000D2420000D2C2EA
:1012F00000003442000070C2000034C2000070429E
:10130000C061000801460020A1F100634FF4804253
:10131000934204D314480844904201D201207047FC
:1013200012480844904201D20220704710480844F5
:10133000904201D2032070470E480844B0F5803F28
:1013400001D2042070470C480A184FF40030824242
:1013500001D205207047094A1144814201D206207A
:10136000704707207047000000C0FFF70080FFF7BC
:101370000040FFF70000FFF70000FEF70000FCF759
:101380004FF47A74FFF7ECFB204603F075FDF9E7A4
:101390002DE9F047DFF8748000244FF0060998F833
:1013A000020006282FD001F041FF20B3184F08F1AA
:1013B000140A04EB840000250AEB800606EB850086
:1013C000B1EE041AD0ED010A07EB850090ED000A9A
:1013D00001F062FF98B16D1C042DEFD388F8014035
:1013E00088F8004098F802108C4202D1052188F854
:1013F0000210BDE8F087042188F80110F9E7641CA9
:10140000E4B2042CD5D388F80190F2E70000002064
:10141000600100207047000078B50024009490F827
:101420003C20012A19D0012280F83C200A680723B9
:101430000568092A13D9EE680A3A02EB4202934082
:101440009E43EE600B788A680A3B03EB43039A40A5
:101450000368DD682A43DA6010E0022078BD2E6957
:1014600002EB420293409E432E610B788A6803EBA5
:1014700043039A4003681D692A431A614A681F237F
:10148000072A13D205686E6B521E02EB820293404C
:101490009E436E630B790A885B1E92B203EB830353
:1014A0009A4003685D6B2A435A6327E005680D2A5A
:1014B00012D22E6BD21F02EB820293409E432E6308
:1014C0000B790A88DB1F92B203EB83039A4003680F
:1014D0001D6B2A431A6311E0EE6A0D3A02EB820299
:1014E00093409E43EE620B790A880D3B92B203EB68
:1014F00083039A400368DD6A2A43DA62164B056863
:10150000144A9D4206D10D68122D03D1556845F449
:101510008005556005689D4218D10B68102B01D0DD
:10152000112B13D1536843F4000353600968102949
:101530000CD10A490A4A0968B1FBF2F101EB8101B9
:10154000490000E0491E00910029FBD180F83C4091
:10155000002078BD0023014000200140B0000020A1
:1015600040420F0010B5084800F096F9074801F016
:1015700098FB054800F00FF805490880BDE81040C9
:10158000024801F07DBB0000C8040020780500205F
:101590000600002070470068C06C704770B50446B4
:1015A000006801684268C1F34001C2F3401251B3C0
:1015B0004AB3216CC90603D4216C41F40071216443
:1015C000816811F0405F17D1217EA9B9C16A11F479
:1015D000700F02D0816849050ED4416821F02001C6
:1015E0004160206C20F480702064206CC00403D41F
:1015F000206C40F0010020642046FFF7B3FF216813
:101600006FF012000860206801684268C1F3800131
:10161000C2F3C01289B382B3216CC90603D4216C12
:1016200041F400512164816811F4401F1ED1816B87
:1016300011F4401F02D08168490517D4416849055B
:1016400014D4816811F0405F10D1217E71B94168D6
:1016500021F080014160206C20F480502064206CD7
:10166000C00503D4206C40F0010020642046FFF741
:10167000D1FE21686FF00C000860206801684268A4
:1016800011F0010FC2F380120ED06AB10068C007DA
:101690000AD0206C40F480302064204600F046F8E8
:1016A00021686FF001000860206801684268C1F39A
:1016B0004011C2F3806200290DD0002A0BD0616C6A
:1016C00041F0020161646FF0200505602046FFF7DC
:1016D00061FF2068056070BD70B504004FF0000523
:1016E00003D0206C002610B107E0012070BD204619
:1016F00000F01EF8666484F83C60206CC00610D4CC
:10170000206C20F4885040F0020020642046FFF74F
:1017100093F86664206C20F0020040F00100206421
:1017200000E0012584F83C60284670BD7047000049
:1017300010B586B0044614216846FEF7EBFD154946
:101740002068884224D114480021026842F4807243
:101750000260006800F4807005900F481438026839
:1017600042F002020260006800F0020005900120D1
:1017700000900320CDE901016946084800F08EFD84
:1017800000220A21122000F0F7FE122000F0E6FEEF
:1017900006B010BD00200140443802400004024061
:1017A00018B50021009190F83C20012A07D00122B1
:1017B00080F83C2002689368DB0702D011E0022029
:1017C00018BD936843F0010393602C4A2C4B1268B8
:1017D000B2FBF3F202EB420200E0521E0092002A3A
:1017E000FBD102689368DB0746D0036C40F20164CA
:1017F000A34343F48073036453685B0505D5036C0E
:1018000023F4005343F480530364036CDB0404D5D6
:10181000436C23F00603436400E0416480F83C100D
:10182000184B6FF02201116001684A68164C224380
:101830004A6059680068CA06144906D088421BD11C
:10184000816811F0405F13D016E08842F8D0104A4A
:10185000904203D1D1F80423D206F1D00D4A904230
:101860000AD1D1F8041301F01F011029E8D303E0D5
:10187000816841F080418160002018BDB0000020E7
:1018800040420F00002301402000000400200140DE
:10189000002101400022014090F83C1001290CD0A9
:1018A000012180F83C1001688A6822F001028A60F8
:1018B00001688A68D20702D00BE0022070474A68AC
:1018C000064B1A404A60016C21F4885141F0010135
:1018D0000164002180F83C1008467047DFFFFFFBE1
:1018E00090F82020012A07D0022A05D0416A41F44D
:1018F0008021416201207047006842690A434261C9
:1019000000207047F0B590F820500468A468012DBD
:1019100005D0022D03D0416A41F4802153E014F038
:10192000406F01D1E5004BD5C4F30164022C03D90B
:10193000416A41F4000146E00125A5401D608D6823
:101940004FF4C0739DB1CE6835434E6845EAC60575
:10195000066803EB0417F5514FF4C275076805EBF1
:1019600004150E697E51097D012905D009E00E8814
:10197000CD6845EA4655EBE701684E5946F4807656
:101980004E511179D2F805504FF4C67641EA05253B
:10199000016806EB04168D511178D2F801204FF43E
:1019A000C47541EA0221026805EB04155151006833
:1019B00003EB0411425842F0010242500020F0BDF6
:1019C000416A41F4001141620120F0BD10B590F868
:1019D0002020012A07D0022A05D0416A41F4802143
:1019E0004162012010BD3B48D0F8002242F00102C4
:1019F000C0F80022D0F8002222F47C52C0F8002265
:101A0000D0F800224B6A42EA0322C0F800220A7D85
:101A100002F01F0301229A40D0F81C329343C0F811
:101A20001C32CB69B3B9D0F80C329343C0F80C32F6
:101A30008C894B6864F31F434C6900EBC404C4F801
:101A400040320C890B6864F31F434C6900EBC404FB
:101A5000C4F84432CB69012B16D1D0F80C321343B1
:101A6000C0F80C320C884B6864F31F434C6900EBE0
:101A7000C404C4F840320C89CB6864F31F434C693A
:101A800000EBC404C4F844328B69002BD0F8043254
:101A90000ED01343C0F804320B69002BD0F8143277
:101AA00008D01343C0F81432096A012904D008E0B1
:101AB0009343EFE79343F5E7D0F81C121143C0F8C6
:101AC0001C12D0F8001221F00101C0F80012002011
:101AD00010BD000000640040704730B590F8204011
:101AE000012C05D0022C03D0416A41F480215DE035
:101AF0000468002955D02469A40754D04FF4D87441
:101B0000056804EB01142D5915F00405956005686E
:101B10002D594ED0ED08556005682C5904F002048B
:101B2000D4604FF4DA74056804EB01142D5905F004
:101B30000F05156105682D59C5F3072595610568E1
:101B40002C59240C54614FF4DC72046802EB01122E
:101B5000A4581C700468A458240A5C700468A45833
:101B6000240C9C700468A258120EDA704FF4DE72D6
:101B7000046802EB0112A4581C710468A458240ADA
:101B80005C710468A458240C9C710468A258120E5D
:101B9000DA71006881B1016941F020010161002022
:101BA00030BDE468A8E7416A41F4001141620120B8
:101BB00030BD6D0D1560AFE7C16841F02001C16017
:101BC000EDE70246002092F82010012901D00229F9
:101BD0000CD111688A68520100D501208A6812016F
:101BE00000D5401C8968C90000D5401C70472DE90C
:101BF000F05F0546006800244669D0F804908768C5
:101C0000D0F80CB0D0F810A0D0F81880F10748D068
:101C1000F90714D001218160B80703D5284600F0E8
:101C200068FA0CE0780702D54FF4006407E0380743
:101C300002D54FF4805402E0284600F059FAF80526
:101C400016D529684FF480708860B80503D52846FA
:101C500000F051FA0CE0780502D544F4005407E096
:101C6000380502D544F4804402E0284600F042FAE8
:101C7000F80316D529684FF480308860B80303D57F
:101C8000284600F03AFA0CE0780302D544F4004408
:101C900007E0380302D544F4803402E0284600F01F
:101CA0002BFA300707D55FEACB6004D529681020EE
:101CB00044F40074C86070074FF0080707D55FEA66
:101CC0000B7004D52868C760284600F059F9B007A2
:101CD00006D52868C068800702D0284600F052F96F
:101CE000700607D55FEACA6004D52968102044F45D
:101CF00080640861B00607D55FEA0A7004D52868D9
:101D00000761284600F0C4F9F00606D52868006986
:101D1000800702D0284600F0BCF9B00308D55FEA7E
:101D2000C96005D5296810204860284600F0B2F93E
:101D3000F00307D55FEA097004D528684760284694
:101D400000F0DCF9300446D55FEA497040D5F00573
:101D500004D55FEAC87001D044F00104B00504D591
:101D60005FEA887001D544F00204700504D55FEA8B
:101D7000487001D544F00404300529D518F0700FDF
:101D800026D008F07000402815D006DC102809D0B5
:101D900020280AD0302816D10AE050280ED060281A
:101DA00011D10EE044F008040DE044F010040AE004
:101DB00044F0200407E044F0400404E044F08004D0
:101DC00001E044F480742868816921F07001816128
:101DD000296804204860002C05D0686A20436862A6
:101DE0002846FFF779FEBDE8F09F70B5040003D0E8
:101DF00094F8200010B104E0012070BD204600F0EE
:101E000081F82068016821F00201016000F02CFBDC
:101E10000546052604E000F027FB401B0A2811D8E0
:101E2000206840688007F6D42068016841F001010D
:101E3000016000F019FB05460BE000F015FB401BAC
:101E40000A2806D9606A40F40030606284F8206095
:101E5000D2E720684068C007EFD0207E01282068C4
:101E600001683DD021F080010160607E012820687A
:101E7000016838D021F040010160A07E012820686F
:101E8000016833D021F020010160E07E0128206844
:101E900001682ED041F010010160207F01282068E8
:101EA000016829D021F008010160607F01282068C5
:101EB000016824D021F004010160D4E90201084343
:101EC000D4E90412114308436168491E084321689C
:101ED000C86100206062012084F82000002070BDED
:101EE00041F08001C0E741F04001C5E741F0200129
:101EF000CAE721F01001CFE741F00801D4E741F033
:101F00000401D9E710B586B0044614216846FEF7EF
:101F100001FA18492068884229D11748002102682F
:101F200042F000720260006800F0007005901248F4
:101F30001038026842F002020260006800F00200FD
:101F400005904FF4407000900220CDE9010103207C
:101F50000390092004906946084800F09FF9002288
:101F60000721142000F008FB142000F0F7FA06B057
:101F700010BD0000006400404038024000040240F0
:101F800070470000F0B58DB00024054607941C2171
:101F900068460894FEF7BEF93949012008703949AE
:101FA000286888426AD107AB6A4600213648FFF7A5
:101FB00094FD3648009A40F2024CA2F2024500F12C
:101FC0001F0300F1110600F12D07624526D00ADC3F
:101FD000A2F54072023A0DD0012A10D0022A13D085
:101FE000032A47D115E0012D23D0022D2CD0032D3B
:101FF00040D134E040F202310546018010E040F269
:1020000003310546818316E04FF441710546C181D5
:102010001CE040F205310546418522E0054602807C
:102020000498A87007A9E81C049AFEF75AF9AC8135
:1020300020E0054682830498A87707A91846049AE9
:10204000FEF74FF92C8515E00546C28104982874E7
:1020500007A93046049AFEF744F96C830AE0054666
:102060004285049885F82C0007A93846049AFEF7A3
:1020700038F9EC8602210448FFF732FC0DB0F0BDC0
:10208000740000200064004010050020FC010020C6
:10209000704770477047000070B5044690F8200004
:1020A000012804D0606A40F40020606218E0022039
:1020B00084F820002068016821F00101016000F02F
:1020C000D3F905460EE000BF00F0CEF9401B0A2808
:1020D00008D9606A40F400306062052084F820006E
:1020E000012070BD20684068C007EDD1606270BDFE
:1020F000704770477047704770477047704790F857
:102100003510022903D08021416501207047052147
:1021100080F835100068016821F00101016000209D
:102120007047000070B5044600F09EF90546601C3B
:1021300002D004480078044400F096F9401BA04205
:10214000FAD370BDA40000202DE9F04704462248D0
:102150000F46017E01290AD00121804601764CF20A
:1021600050394846FEF760FE020003D02FE00220FF
:10217000BDE8F0874FF0FF3038602068174D012828
:1021800001D0A6681CE0207C6168FEF7BBFD4846D4
:10219000FEF74AFE0246286820F00400286014E09A
:1021A000217C3046FEF75CFD4846FEF73DFE02000E
:1021B000286820F0FA00286001D03E6005E0761C17
:1021C000D4E902100844B042EAD8FEF771FD0021BC
:1021D00088F818101046CBE790060020103C02400B
:1021E0000348016841F00041016000207047000091
:1021F000103C02402DE9F0471B4E05461446307E48
:102200001F468946012808D0012030764CF250380C
:102210004046FEF709FE18B114E00220BDE8F08741
:102220009DB1012D16D0022D19D022463B464846BD
:10223000FEF78CFD4046FEF7F7FD0C490A6822F0D8
:1022400001020A6000213176E8E7E1B24846FEF774
:102250006DFDEFE7A1B24846FEF78EFDEAE72146A5
:102260004846FEF79BFDE5E790060020103C024043
:10227000074900200A68002A09DA054A054B0C3A8A
:102280001360054B13600968002900DA01207047CC
:10229000103C024023016745AB89EFCD2DE9F84F93
:1022A00000224FF0010803254FF00F0E0B6808FACB
:1022B00002F42340A3426ED14E68012E05D0022EB7
:1022C00003D0112E01D0122E12D186684FEA420C93
:1022D00005FA0CF7BE43CF6807FA0CF7374387605F
:1022E0004668A6430C79C4F3001494403443446018
:1022F000C668570005FA07FC8C6826EA0C06BC4045
:102300003443C4604C68022C01D0122C13D1D40881
:1023100000EB8404A346D4F8209054074FEAD46A13
:102320000EFA0AF629EA06090E6906FA0AF646EADC
:102330000906CBF8206006680C7926EA0C0604F042
:102340000304BC40344304604C68E40065D5364C5B
:10235000266846F480462660246822F0030604F4CA
:1023600080440094314C3444A446D4F8084896077D
:10237000370F0EFA07F6B4432D4EB04201D10026B6
:1023800024E02C4EB04201D101261FE02A4EB0427B
:1023900002D102261AE040E0284EB04201D10326C5
:1023A00014E0274EB04201D104260FE0254EB04282
:1023B00001D105260AE0244EB04201D1062605E0EF
:1023C000224EB04201D1072600E00826BE40264337
:1023D000CCF808681E4E34684F689C43FF0300D554
:1023E0001C4334601A4C241D26684F689E43BF036B
:1023F00000D51E432660164E083634684F689C434D
:10240000FF0200D51C433460114E0C3634684F680F
:102410009C43BF0200D51C433460521C102AFFF4B9
:1024200045AFBDE8F88F000044380240003001405D
:10243000000002400004024000080240000C02407C
:10244000001002400014024000180240001C02402C
:10245000003C01400069084000D0012070470AB1EB
:10246000816170470904FBE70148806870470000FC
:10247000A4000020024881680278114481607047FE
:10248000A40000200B4810B5016841F40071016000
:10249000016841F480610160016841F4807101606C
:1024A000032000F089F8002000F006F800F03EF864
:1024B000002010BD003C024010B5014688B000224B
:1024C000372000F059F8372000F048F8134800246E
:1024D000016841F020010160006805A900F02000BA
:1024E0000690684600F014F900F032F90C494000FB
:1024F000B0FBF1F10C480B4A491E026040F2E73292
:10250000C0E90324C0E9011400F06CFB10B1012004
:1025100008B010BD044800F0B3FBF9E740380240B2
:1025200040420F0000140040500600200A4808B541
:10253000016841F480410160006800F4804000902F
:102540000548001F016841F080510160006800F0FB
:102550008050009008BD000044380240002809DB8C
:1025600000F01F02012191404009800000F1E020AD
:10257000C0F8001170470000F0B40E4B1B680C4609
:10258000C3F30223C3F10705042D00D90425191D47
:10259000072901D2002300E0DB1E012606FA05F11F
:1025A000491E214099409E40761E16403143F0BCA2
:1025B00001F052BF0CED00E0064900F00702086888
:1025C0004FF6FF03184040EA0220034A1043086018
:1025D000704700000CED00E00000FA052DE9F0471F
:1025E0000E46050065D0DFF81481D8F80000F7B278
:1025F00000F00F00B04207D288F80070D8F8000051
:1026000000F00F00B04254D128683D4C810712D52C
:10261000400703D5206840F4E05020602878000788
:1026200003D5206840F4604020602068A96820F04D
:10263000F000084320602878C0072DD03049686832
:102640000839012812D0022813D0032811D00968B4
:10265000890700292DDA216821F003010143216057
:10266000FFF702FF814641F2883A0EE009688903CC
:10267000EFE709688901ECE7FFF7F6FEA0EB090137
:10268000514502D90320BDE8F0872068696800F051
:102690000C00B0EB810FEFD1D8F80010404601F0EC
:1026A0000F01B14207D90770006800F00F00B04277
:1026B00001D00120E7E72878400705D52068E968C0
:1026C00020F4E050084320602878000706D52068F1
:1026D000296920F4604040EAC100206000F058F809
:1026E0002168084AC1F30311515CC84006490860DB
:1026F00006480068FFF7E0FE0020C4E7003C024007
:1027000008380240A8610008B0000020A80000209E
:102710000F2202600C4A136803F00303436013683E
:1027200003F0F0038360136803F4E053C36012689E
:102730004FF4E05303EAD20202610448006800F05B
:102740000F0008607047000008380240003C02405B
:102750000448054900680968044AC1F38221515CB4
:10276000C8407047B000002008380240B861000837
:102770000448054900680968044AC1F34231515CC4
:10278000C8407047B000002008380240B861000817
:10279000154810B5006810F00C02144813D0144905
:1027A000042A0FD0082A0ED10F4C241F2268236858
:1027B00002F03F025B0207D52068C0F38810A0FB3F
:1027C000010106E0084610BD2168C1F38811A1FB94
:1027D00000010023FDF754FD2168C1F30141491CAC
:1027E0004900B0FBF1F010BD083802400024F400AD
:1027F00040787D012DE9F84F04006ED02078DFF895
:102800003C93C007A9F104054AD009F1040001680E
:10281000C1F38101012908D00068C0F381000228BA
:102820000AD1D9F80000400206D52868800337D5C0
:1028300060680028E1D033E06068B0F5803F10D0D8
:10284000B0F5A02F286810D020F4803028602868C8
:1028500020F4802028606068A8B1FFF705FE0646D6
:102860000DE0286840F48030F4E740F480202860D0
:10287000F7E700BFFFF7F8FD801B642873D82868CE
:102880008003F7D50CE0FFF7EFFD064605E000BF3B
:10289000FFF7EAFD801B6428F0D828688003F7D48E
:1028A0002078DFF89C8280074FF0000A3ED5A348CD
:1028B000001D016811F00C0F08D00068C0F3810002
:1028C00002280BD1D9F80000400207D428688007FD
:1028D00016D5E068012800D112E02BE1E068B8B11C
:1028E0000120C8F80000FFF7BFFD064605E000BF65
:1028F000FFF7BAFD801B0228C0D828688007F7D5EB
:102900002868216920F0F80040EAC10028600DE045
:10291000C8F800A0FFF7A8FD064604E0FFF7A4FDF5
:10292000801B02281FD828688007F7D4207800076A
:1029300022D5824E83486169703671B101210160F0
:10294000FFF792FD074604E0FFF78EFDC01B02284B
:1029500009D830688007F7D50EE0C0F800A0FFF76F
:1029600083FD074605E082E0FFF77EFDC01B0228DD
:102970007DD830688007F7D42078400768D5DFF825
:10298000BCB100270BF13C0BDBF80000C0000BD4FE
:10299000DBF8001041F08051CBF80010DBF80000AC
:1029A000012700F080500090674E3068C00510D4B9
:1029B000306840F480703060FFF756FD009005E00D
:1029C000FFF752FD0099401A022850D83068C00520
:1029D000F6D55A4EA0686C3601280FD0052830680D
:1029E00010D020F001003060306820F0040030602A
:1029F000A068B8B1FFF738FD00900FE0306840F0F4
:102A00000100F4E740F004003060F7E7FFF72CFD29
:102A10000099411A41F28830814266D830688007B7
:102A2000F4D50EE0FFF720FD009007E0FFF71CFD56
:102A30000099411A41F28830814256D830688007A7
:102A4000F4D42FB1DBF8001021F08051CBF8001046
:102A5000A069C8B33949091D0968C1F38101022978
:102A60004AD00228504607D0C8F8600000E03CE099
:102A7000FFF7FAFC04463BE04746C8F86000FFF762
:102A8000F3FC064605E000BFFFF7EEFC801B0228C2
:102A90002BD828688001F7D4D4E907010843A16A3C
:102AA0002A4A490802EB0141626A41EA821108435D
:102AB00094F82C1040EA0161C9F800100120386632
:102AC000FFF7D2FC044606E036E000BFFFF7CCFC7F
:102AD000001B022809D828688001F7D52CE000BF28
:102AE000FFF7C2FC001B022802D90320BDE8F88FC3
:102AF00028688001F4D41FE00128F7D0D9F800003D
:102B0000E26900F48001914214D1226A00F03F0191
:102B100091420FD147F6C071626A0140914209D1DA
:102B2000A26A00F44031914204D1E16A00F0706081
:102B3000884201D00120D9E70020D7E704380240BD
:102B400000004742800E4742007000400000FFFF37
:102B50007047704770B590F83C20012A32D00124AC
:102B600080F83C40022280F83D2003685A689D6846
:102B700022F070060A6832435A60134B02689A4288
:102B800014D0B2F1804F11D0104B9A420ED0104B9E
:102B90009A420BD00F4B9A4208D00F4B9A4205D065
:102BA0000E4B9A4202D00E4B9A4204D1496825F04E
:102BB00080031943916080F83D40002180F83C106B
:102BC000084670BD022070BD0000014000040040B6
:102BD00000080040000C004000040140004001409B
:102BE0000018004010B5040003D094F83D0010B167
:102BF00007E0012010BD002084F83C00204600F0D2
:102C00000DF8022084F83D00211D206800F0B6FF79
:102C1000012084F83D00002010BD000008B5154AD1
:102C20000168154891420ED1016841F0020101602E
:102C30000068002200F00200009009211D20FFF72B
:102C40009BFC1D2010E00D4A914211D1016841F01A
:102C5000100101600068002200F0100000900821BF
:102C60003620FFF789FC3620BDE80840FFF776BC28
:102C700008BD000000040040403802400010004041
:102C80000168CA6842F00102CA600068816801F008
:102C90000701062903D0016841F00101016000200D
:102CA00070470168CA6822F00102CA600068016AC0
:102CB00041F21112114207D1016A9210114203D15F
:102CC000016821F0010101600020704770B50446E1
:102CD00090F83C00012817D0012584F83C500220D0
:102CE00084F83D002068826822F0770222F47F4257
:102CF00082600868502830D00DDC20284DD005DCDB
:102D000098B310283BD148E0022070BD302844D051
:102D1000402834D139E0602828D0702806D0B0F59A
:102D2000805F2CD0B0F5005F29D10AE0CB68D1E9F3
:102D30000121206800F086FF2068816841F077015A
:102D400009E0CB68D1E90121206800F07BFF206811
:102D5000816841F48041816011E0CA684968206857
:102D600000F082FF5021206807E016E0CA68496839
:102D7000206800F08AFF6021206800F06DFF84F871
:102D80003D50002084F83C0070BDCA684968206846
:102D900000F06AFF40212068EFE7226801461046F4
:102DA000EBE7704770B50446006801694FF0000515
:102DB000C943890715D4C168C943890711D4E91EDD
:102DC000016101202077206880698007204602D0B9
:102DD000FFF7E7FF04E000F098F8204600F096F8CF
:102DE000257720680169C943490717D4C168C943D9
:102DF000490713D46FF00401016102202077206895
:102E0000806910F4407F204602D0FFF7CAFF04E03B
:102E100000F07BF8204600F079F8257720680169FA
:102E2000C943090716D4C168C943090712D46FF012
:102E300008010161042020772068C06980072046CE
:102E400002D0FFF7AEFF04E000F05FF8204600F08C
:102E50005DF8257720680169C943C90617D4C168A0
:102E6000C943C90613D46FF010010161082020770F
:102E70002068C06910F4407F204602D0FFF791FF20
:102E800004E000F042F8204600F040F82577206882
:102E90000169C943C90708D1C168C943C90704D139
:102EA000891E0161204600F033F820680169C9439A
:102EB000090609D4C168C943090605D46FF0800129
:102EC00001612046FFF744FE20680169C9434906B5
:102ED00009D4C168C943490605D46FF040010161B6
:102EE000204600F01FF820680169C94389060BD409
:102EF000C168C943890607D46FF0200101612046EB
:102F0000BDE87040FFF725BE70BD704770470000F8
:102F100000680349884201D1FFF7ACBA704700004E
:102F2000001400407047704770B50268044610688E
:102F3000D168536910F00F0F52D003F0010501F46E
:102F400090762E435FD0C20705D0CA0503D5E26B49
:102F500042F00102E263420705D5DA0703D0E26BD3
:102F600042F00202E263820705D5DA0703D0E26B82
:102F700042F00402E263020707D501F020022A436F
:102F800003D0E26B42F00802E263E26B002A33D026
:102F9000800604D5880602D5204600F015FF20687B
:102FA0004069E16BC0F38010090700D428B32046C4
:102FB00000F0FCFE2068416949061AD5416921F0FC
:102FC00040014161606BA0B11B490165606BFFF777
:102FD00096F8002810D0606B016DBDE8704008477E
:102FE000830610D58B060ED52046BDE8704000F054
:102FF000EBBE2046FFF797FF70BD2046FFF793FF1B
:103000000020E06370BD030606D50B0604D52046FC
:10301000BDE8704000F0B8BF4006F3D54806F1D5D2
:10302000D168204621F04001D160202184F8391078
:1030300000F0FAF870BD00009D3D000870B5040076
:1030400004D094F83900002510B106E0012070BDCD
:1030500084F83850204600F023F8242084F8390002
:103060002068C16821F40051C160204600F0F8FEDC
:103070002068016921F4904101612068416921F0D3
:103080002A0141612068C16841F40051C160E563D3
:10309000202084F8390084F83A00002070BD000038
:1030A00070B586B0044614216846FDF733F92B4805
:1030B000294E256800242949103802220323B542ED
:1030C00022D10C6844F400240C60096801F400214A
:1030D0000591016841F0040101600068694600F053
:1030E000040005909802CDE900020120CDE9020319
:1030F000082004901A48FFF7D1F800220621342056
:10310000FFF73AFA342023E0164EB54222D10D687B
:1031100045F480250D60096801F48021059101685E
:1031200041F0080101600068694600F00800059060
:103130004FF440708DE815000720CDE903300A48B0
:10314000FFF7ACF8002205212720FFF715FA27200A
:10315000FFF704FA06B070BD004C00404038024052
:103160000008024000480040000C024070472DE972
:10317000F843044690F839001F4616460D462028AD
:1031800050D1B5B1AEB194F8380001284AD0012031
:1031900084F838004FF00008C4F83C80212084F8FF
:1031A0003900FFF761F9A6848146E68484F8388007
:1031B00026E00120BDE8F883E08C401EE084A06892
:1031C0004B46B0F5805F4FF000024FF08001204683
:1031D000009703D000F009FFE8B90DE000F005FF0B
:1031E000C8B928882168C0F308004860206908B180
:1031F0006D1C05E0AD1C03E0216815F8010B48606B
:10320000E08C0028D8D14B46002240212046009770
:1032100000F0EBFE08B10320CCE7202084F8390051
:103220000020C7E70220C5E77047FEE72DE9F0411F
:1032300001262DED028B00249FED158A154D2746A2
:10324000B04600BF05EB8400B2EE001A90ED040A10
:10325000F0EE480A00F020F818B1281980F8407004
:1032600002E0291981F84080641C042CEAD3002173
:10327000681890F84000012807D0491C0429F7D3AA
:10328000BDEC028B3046BDE8F0810026F8E7000077
:10329000000000006001002030EE600AB0EEC00ABD
:1032A000B4EEC10AF1EE10FA01D2012070470020FD
:1032B000704700F005F8052001F0DEFDF9E7000099
:1032C0002DE9F0472D4C012600252088DFF8B0803D
:1032D0004FF4004A4FF4FA67642805D9218949B9A7
:1032E000B84201D9E670258051464046FFF7B2F852
:1032F00000B92580A0884FF48049642811D921891C
:10330000A9B9B84201D9E671A58049464046FFF700
:10331000A1F860B9012000F0BDFA1AA001F08CF804
:1033200004E049464046FFF795F800B9A58020899A
:103330001E2821D9B84209D9022000F0ABFA19A001
:1033400001F07AF8E6722581A58025804946464637
:103350004046FFF77FF800280ED151463046FFF770
:1033600079F8002808D1032000F094FA16A001F0A3
:1033700063F82581A5802580BDE8F08754020020F0
:10338000001002400A436F6E74726F6C20636F6DA1
:103390006D6E616420697320746F2077616C6B0AB5
:1033A000000000000A436F6E74726F6C20636F6DD3
:1033B0006D6E616420697320746F2073697420647A
:1033C0006F776E0A000000000A436F6E74726F6CB4
:1033D00020636F6D6D6E616420697320746F20656A
:1033E000726563740A0000000278407802EB0020E6
:1033F00000B290FBF1F000EE100AB8EEC00A704780
:103400007FB5002415480094019402941249039456
:1034100001604FF48031C0E901140461047680F842
:1034200020400F49C0E90A140125C561C46080F835
:1034300030404561FEF750F908B1FDF710FC082057
:10344000CDE90005694602940448FDF7E5FF002830
:1034500001D0FDF704FC7FBD00200140C80400201E
:103460000100000F0F4810B50D49016006214160B1
:1034700000214FF4A0228160C0E903124FF4C00282
:103480004261017641768176C17601774177FEF718
:10349000ACFC002803D0BDE81040FDF7E0BB10BD38
:1034A000006400401005002010B5B2B000220C21CD
:1034B000012002F0BDFA2C4C00220C2120600120DA
:1034C00002F0B6FA606002F02BFAA0601C222749D5
:1034D0006846FCF706FF0021684601F0D9FC234945
:1034E000E0601C221C3107A8FCF7FBFE002107A8A6
:1034F00001F0CEFC1D4920611C2238310EA8FCF7DA
:10350000F0FE00210EA801F0C3FC184960611C22E6
:10351000543115A8FCF7E5FE002115A801F0B8FC10
:103520001249A0611C2270311CA8FCF7DAFE0021B0
:103530001CA801F0ADFC0D49E0611C228C3123A8D0
:10354000FCF7CFFE002123A801F0A2FC074920626E
:103550001C22A8312AA8FCF7C4FE00212AA801F0E9
:1035600097FC606232B010BD78000020E460000873
:10357000F0B587B014216846FCF7CCFE3148002531
:10358000016841F010010160016801F0100105912E
:10359000016841F080010160016801F0800105913E
:1035A000016841F002010160016801F0020105912A
:1035B000016841F008010160016801F0080105910E
:1035C000016841F001010160016801F0010105910C
:1035D000016841F00401016000681B4E00F0040026
:1035E0000590002220213046FEF739FF174F0022B8
:1035F00076213846FEF733FF01242020CDE9000470
:1036000069463046CDE90245FEF748FE7620CDE911
:10361000000469463846CDE90245FEF73FFE4FF407
:103620004040CDE90005694602943046FEF736FE7B
:10363000C020CDE90005694602940548FEF72EFE3C
:1036400007B0F0BD303802400010024000040240D4
:10365000000C024010B586B0002417480094019475
:103660000294039404941349059401605321C0E922
:10367000011440F2E731C0E903148461FFF7B2FAA4
:1036800008B1FDF7ECFA4FF48050009069460A4803
:10369000FFF71CFB08B1FDF7E2FA049404A9064801
:1036A0000594FFF757FA002801D0FDF7D8FA06B0C5
:1036B00010BD000000040040380500201CB50024A7
:1036C0000F4800940D490194016042F2CF01C0E916
:1036D000011442F20F718461C160FFF783FA08B1EF
:1036E000FDF7BDFA0094694605480194FFF732FAE8
:1036F000002801D0FDF7B3FA1CBD00000010004007
:10370000780500200C4810B50A4901604FF4E131FA
:103710004160002181600C22C160C0E90412816116
:10372000C161FFF78BFC002803D0BDE81040FDF716
:1037300096BA10BD004C0040D00500200C4810B5D2
:103740000A4901604FF4E1314160002181600C229F
:10375000C160C0E904128161C161FFF76FFC0028FC
:1037600003D0BDE81040FDF77ABA10BD0048004014
:1037700010060020FEE7704770B504460E4800EBC7
:103780008105642195ED000A2046FDF775FB95ED56
:10379000040A6421A01CFDF76FFB64219FED070A5A
:1037A000201DFDF769FB642195ED080AA01DBDE809
:1037B0007040FDF761BB0000A40100200000000084
:1037C00070B50D460646002404E0315D05A000F00A
:1037D00033FE641CAC42F8DBBDE8704003A000F08F
:1037E0002BBE000030782530327820000A0000001F
:1037F00070B50B4800F034F80AA000F01DFE134D20
:10380000002400BF55F8241011A000F015FE641C20
:10381000042CF7DBBDE8704010A000F00DBE0000E6
:103820000000040854686520646576696365206358
:103830006F6465206F662074686973206D616368CA
:10384000696E65206973203A000000003402002090
:103850003078253032782C20000000000A0000006B
:1038600010B500220A4B114650F8214043F8214080
:10387000072902D250F821402244491C0829F3D3D9
:10388000C069904201D0012010BD002010BD000091
:103890003402002001490870704700001000002029
:1038A0002DE9F0432748284EDFF8A09090ED000A5C
:1038B000062210EE107A264B0125002400F1880123
:1038C000B74205DC90ED000A10EE107A4F4502D9A0
:1038D0009A70CD7000E0CC7090ED010A1D4F10EE93
:1038E000108ADFF874C0B84505DC90ED010A10EECF
:1038F000108AE04502D99A700D7200E00C7290EDCA
:10390000020A10EE108AB84505DC90ED020A10EEAE
:10391000107A674502D99A704D7300E04C7390EDB0
:10392000030A10EE107AB74205DC90ED030A10EEA0
:10393000100A484503D99A708D74BDE8F0838C74E1
:10394000FBE70000600100200000F042000070C1B1
:1039500000000020000070410000F0C210B55020AF
:1039600080F31188BFF34F8FBFF36F8F02F062FABD
:1039700018B104494FF080500860002080F311888E
:1039800010BD000004ED00E0DFF84490114D062466
:10399000114E124FDFF84880FDF768F878B1012228
:1039A00020214846FEF75BFD34703C7088F80040EB
:1039B000E86801F021FF0A2001F05EFAECE700223E
:1039C00020214846FEF74BFDE86801F0A1FEF2E732
:1039D00000100240780000200100002002000020BA
:1039E0000000002030B593B030216846FCF792FC0F
:1039F00014210CA8FCF78EFC19480025016841F041
:103A000080510160006800F08050119015480168F5
:103A100041F4804101600068022400F4804011906C
:103A200001200090000401908001CDE9064019209A
:103A300008904FF4A870CDE9090404200B90684663
:103A4000FEF7D8FE0CA90F2081E831004FF4A050FA
:103A50000F90109005210CA8FEF7C0FD13B030BDEB
:103A600040380240007000400548016841F4700190
:103A7000016003494FF00060803908607047000022
:103A800088ED00E02DE9F041234E4FF40048414617
:103A90003046FEF7DFFC0025204C4FF4804701281C
:103AA00004D139463046FEF7D5FC38B1E5703946C9
:103AB0003046FEF7CFFC012807D00BE0E078002865
:103AC000F5D12088401C2080F1E741463046FEF7C2
:103AD000C1FC38B1E57141463046FEF7BBFC012818
:103AE00007D00CE0E0790028F5D1A088401CA08028
:103AF000F1E739463046FEF7ADFC012805D0E57206
:103B0000BDE8F0410648FFF74DB9E07A0028F7D14B
:103B10002089401C2081F3E700100240540200205D
:103B20003805002010B50E48FDF73AFE0D48007824
:103B300080B100200C4A0524C0EBC00102EB41011A
:103B40008B895B1C9BB28B81052B00D38C81401C25
:103B50000328F1DDBDE810400448FFF723B9000059
:103B6000C804002074000020FC010020780500201B
:103B70000148FFF717B9000050060020F0B50268B1
:103B8000254C264D264E274F274B4FF0804CA04208
:103B900009D0604507D0A84205D0B04203D0B84252
:103BA00001D0984204D122F0700E4A6842EA0E0217
:103BB000A0421BD0604519D0A84217D0B04215D002
:103BC000B84213D0984211D0184DA8420ED0184DCB
:103BD000A8420BD0174DA84208D0174DA84205D0D7
:103BE000164DA84202D0164DA84203D122F44075CA
:103BF000CA682A434D6922F080022A4302608A681B
:103C0000C2620A688262A04201D0984201D1096969
:103C1000016301214161F0BD00000140000400404A
:103C200000080040000C004000040140004001403A
:103C3000004401400048014000180040001C0040C2
:103C40000020004010B5846842EA032224F47F4437
:103C50000A432243826010BD826822F070020A4348
:103C600042F007018160704710B5036A046A24F0CE
:103C700001040462846924F0F00444EA021423F08D
:103C80000A020A438461026210BD10B5036A23F080
:103C9000100303628369046A23F4704343EA023227
:103CA00024F0A00343EA01118261016210BD00000B
:103CB000104800F110024178042917D01378012B25
:103CC0000AD1012904D0032902D0022902D003E03D
:103CD000022100E0032181701178032901D1012123
:103CE00081701178022901D10021817000201070AB
:103CF0007047000000000020F8B5234C21680868D8
:103D0000224DC04380066FF0100611D44868C2B23D
:103D1000688830B10C2832D21D490A54401C688092
:103D20002DE00E602168CB6843F01003CB60F3E711
:103D30000868C043C00622D416480068F8B10023C2
:103D40006A46134901F0DCFE69881148FCF7E2FA83
:103D5000206806602068C16821F01001C160002061
:103D600068800C210A4800F0EBF9009838B10A4944
:103D70004FF080500860BFF34F8FBFF36F8FBDE8E7
:103D8000F8400148FFF7D0B8D0050020A00000207F
:103D9000C40500207C00002004ED00E010B5806B1D
:103DA0000021C185C184FFF7BEF810BD0168CA6853
:103DB00022F49072CA6001684A6922F001024A61E5
:103DC000202180F83A10704710B590F83A10222957
:103DD00001D0022010BD8168B1F5805F11D001696A
:103DE000002901681FD0496801F07F03816A4A1CDD
:103DF00082620B70C18D491E0904090CC18518D05F
:103E00002BE00269816A002A0268526805D0D2B2AA
:103E10000A80816A491C8162ECE7C2F308020A80C9
:103E2000816A891CF7E74A68816A4B1C83620A70C1
:103E3000E0E70168CA6822F02002CA600168CA6827
:103E400022F48072CA6001684A6922F001024A6164
:103E5000202180F83A10FFF789F9002010BD0000FA
:103E60002DE9F041044600680169E26821F44051FF
:103E7000114301612169A068E26908436169114346
:103E800008432168CA6849F20C639A430243CA6036
:103E900020684169A26921F4407111434161E069E0
:103EA000192764253226B0F5004F354A3549206878
:103EB0004FF0000806D0884201D0904236D1FEF77C
:103EC00057FC35E0884201D0904202D1FEF750FC09
:103ED00001E0FEF73DFC61684A18A0FB070148EBD2
:103EE0000803FCF7CDF90146B0FBF5F00201B1FB88
:103EF000F5F06FF01803584301EB800006EBC000AB
:103F0000B0FBF5F000F0F80002EB4002B1FBF5F079
:103F1000584301EB800006EBC000B0FBF5F000F069
:103F20000700216810448860BDE8F081FEF710FCAE
:103F300061688B0F8A00A0FB0701FCF7A1F901461D
:103F4000B0FBF5F06FF01802504301EB800006EB78
:103F50000010B0FBF5F000F0F002B1FBF5F002EB61
:103F60000012B1FBF5F06FF01803584301EB80002D
:103F700006EB0010B0FBF5F000F00F00D1E70000F9
:103F8000001401400010014090F83910212901D09F
:103F9000022070478168B1F5805F016A0BD04A1C2E
:103FA0000262026809785160C18C491E0904090C3B
:103FB000C1840ED017E009880268C1F3080151607E
:103FC00001690029016A02D0491C0162ECE7891CE1
:103FD000FBE70168CA6822F08002CA600068C16815
:103FE00041F04001C160002070472DE9F041984642
:103FF00017460E460446069D1DE0681C1BD02DB1D9
:10400000FEF732FAA0EB0800A84214D92068C16874
:1040100021F4D071C1602068416921F00101416142
:10402000202084F8390084F83A00002084F8380011
:104030000320BDE8F0812068006836EA000004D063
:104040000020B842D9D00020F3E70120F9E70000B2
:10405000F8B5234C21680868224DC04380066FF0F4
:10406000100611D44868C2B2287830B10C2832D278
:104070001D490A54401C28702DE00E602168CB6851
:1040800043F01003CB60F3E70868C043C00622D4B6
:1040900016480068F8B100236A46134901F030FD64
:1040A00029781148FCF736F900202870206806604E
:1040B0002068C16821F01001C1600C210A4800F09D
:1040C0003FF8009838B10A494FF080500860BFF3BC
:1040D0004F8FBFF36F8FBDE8F8400148FEF724BF54
:1040E00010060020A0000020B80500207800002065
:1040F00004ED00E086B000200090104C019002908A
:10410000039004900590206840B10122694601F0B7
:1041100055FD18B10C21684600F012F8606840B1F6
:10412000012203A901F04AFD18B10C2103A800F0F7
:1041300007F8052000F0A0FEE5E700007800002069
:1041400070B504460078682804D1601810F8010C96
:10415000162804D0002020606060A06070BDA078A8
:10416000C12807D0C3281DD0C528F7D1BDE87040AD
:10417000FFF73EBBE279112AF0D001211648222A2E
:1041800002D0332A0AD103E0227A0D2A06D070BD6C
:10419000217A0D2904D00C29F9D10221017070BDBA
:1041A0000321FBE70DA000F047F9184D002021186E
:1041B000C97845F82010401C0828F8DB144808236B
:1041C000124A1349103800F0D9F8E969BDE8704087
:1041D00010A000F031B90000100000202A2A2A5750
:1041E000726974696E6720494420746F20466C615F
:1041F00073682C506C6561736520576169742E2E4D
:104200002E2E2E212A2A2A0A00000000400100201A
:10421000100004082A2A2A57726974696E67204FB1
:104220004B212053756D20436865636B20697320B3
:10423000307825780A0000002DE9F05F35486826BF
:104240004FF00A0A067000F1E40480F801A0E1785A
:1042500081702179C170E17F017194F82010417162
:1042600000258571C571D02707724FF0070880F8C7
:104270000980617A817294F82510C1724FF0160995
:1042800080F80C904FF47A7B01465B460D22224861
:10429000FEF76DFFA4F1D7005B46067080F801A021
:1042A000617C8170A17CC17094F82D10017194F82B
:1042B0002E1041718571C571077280F8098094F8DC
:1042C00033108172C17280F80C9001460D221248A1
:1042D000FEF74DFFA4F1CA000C21067041701021B9
:1042E00081702722C27001710E214171F421817108
:1042F0000121C171077280F80980FF218572C172A6
:1043000080F80C905B46BDE8F05F01460D22024844
:10431000FEF72DBF18010020D00500204FF47A745D
:10432000FFF78AFF204600F0A7FDF9E7FEE700004F
:104330000E4A0621002051709170103210709FEDCE
:104340000C0A0C4901EB8002401C82ED000A042893
:10435000F8D3002001EB8002401C82ED040A0428FF
:10436000F8D3012240210448FEF779B8000000206C
:104370000000000060010020000402402DE9F84F19
:104380004FF000091D4616468A4680464C46CDF839
:104390000090FDF76DFF4046FCF7B4FF074650461E
:1043A000FCF7B0FF1B49C21B0220C1F80090521C51
:1043B0008F60C1E9032069461648FDF7C5FE10B1BC
:1043C0000120BDE8F88F00204746691E04E000BFC9
:1043D00056F82020401C14448842F9DBF461002484
:1043E00011E000BF56F82420002339460220FDF7D3
:1043F00001FF00B93F1D56F8242008EB840106A0F8
:1044000000F01AF8641CAC42ECDBFDF7E9FE00207A
:10441000D7E7000060020020616464722069733A8B
:10442000307825782C20646174612069733A307883
:10443000253032780A0000000FB4054B10B503A9EF
:10444000044A029800F0EAF810BC5DF814FB000082
:104450004D4D0008140100200907090E002804DB57
:1044600000F1E02080F80014704700F00F0000F128
:10447000E02080F8141D704702E008C8121F08C130
:10448000002AFAD170477047002001E001C1121FD5
:10449000002AFBD1704700002DE9FF5F82B00021A8
:1044A000DDE90430020DDDF840B0034318D044F6D6
:1044B0001050A2F2FF3242431514119801281FD068
:1044C000A5EB0B00401C5FEA000A4FF000064E4FC0
:1044D000DFF83891B046504615D5CAF1000413E014
:1044E000119801244AA3012801D16FEA0B01029817
:1044F000119AC0E90031C0E9024206B0BDE8F09F60
:10450000CBF10000DFE704460021404A491842EBA6
:104510000450CDE9001012E0E00707D032463B46D8
:1045200040464946FBF701FF8046894632463B46F6
:1045300010461946FBF7F9FE06460F466410002C9C
:10454000EAD1DDE90401DDE90023BAF1000F06DA62
:10455000FBF7EBFE42464B46FBF7E7FE05E0FCF7B8
:10456000A2F842464B46FCF79EF804460E4600224F
:10457000284BFCF71FF903D84FF0FF30014607E046
:104580000022254B20463146FBF7E6FFFCF7FAF800
:10459000102409E0002C0ADB0A220023FBF770FE3E
:1045A000039B30321A55641E50EA0102F2D1641C9A
:1045B000039AC4F111031444119A012A03D0012271
:1045C00008430DD10AE0084304D000204FF0110B3E
:1045D000119072E7A3EB0B056D1E0DE05B4504DD4A
:1045E0004FF0000205F1010504E003DA4FF000028C
:1045F000A5F10105002AECD002981199C0E9023119
:10460000C0E9004579E70000000014400000F03FD9
:10461000300000000000F0430000E03F2DE9FF4FB4
:1046200095B09B468946064600250FE2252877D19E
:1046300000242746F84A0121059400E0044316F8B7
:10464000013F203B01FA03F01042F7D130782A28CD
:1046500011D06FF02F033078A0F13002092A16D85C
:10466000059A44F0020402EB820203EB420210447A
:10467000761C0590EFE759F8042B0592002A03DA1F
:10468000504244F40054059044F00204761C307803
:104690002E2816D116F8010F44F004042A280DD054
:1046A0006FF02F023078A0F13003092B09D807EB07
:1046B000870302EB4303C718761CF3E759F8047B22
:1046C000761C30786C280FD006DC4C2817D0682870
:1046D0000DD06A2814D104E0742810D07A280FD1A4
:1046E0000DE044F400140AE044F4801401E044F4C2
:1046F00040147278824202D104F58014761C761C34
:10470000307866280BD013DC582877D009DC0028D5
:1047100075D04528F6D04628F4D047281AD19DE117
:1047200018E0632835D0642879D0652812D195E146
:10473000702873D008DC6728F1D069286FD06E2804
:104740000DD06F2806D1B5E073282CD0752875D010
:10475000782874D05A46179990476D1C75E1C4F3B8
:104760000250022809D003280DD0D9F800100428DF
:104770000DD00D6009F1040967E1D9F80010EA17BE
:10478000C1E90052F6E7D9F800100D80F2E70D708C
:10479000F0E719F8041B8DF8001000208DF80100D7
:1047A000EA46012003E059F804AB4FF0FF306107FF
:1047B0004FF0000102D40DE008F101018846B94232
:1047C0000FDA8045F8DB1AF808100029F4D108E068
:1047D00008F1010188468142FADB1AF80810002925
:1047E000F6D105985B46A0EB080721463846179A94
:1047F00000F094FA284400EB080507E04DE029E1B9
:104800000DE01AF8010B5A4617999047B8F10108C4
:10481000F7D25B4621463846179A13E142E00A2256
:104820000092C4F302524FF0000A022A08D059F84D
:1048300004CB032A4FEAEC710AD00DE029E02AE00C
:1048400009F1070121F00702F2E802C1914609E0EF
:104850000FFA8CFC4FEAEC71042A03D14FFA8CFC5E
:104860004FEAEC71002907DA0A460021DCF1000C5E
:1048700061EB02012D2202E0220504D52B228DF8E6
:104880000420012203E0E20701D02022F7E790464E
:1048900059E00A2102E010220DE010214FF0000A39
:1048A00000910BE010224FF0000A44F004040827A6
:1048B000009203E008224FF0000A0092C4F3025273
:1048C000022A05D059F804CB0021032A08D009E0B8
:1048D00009F1070121F00702F2E802C1914605E063
:1048E0001FFA8CFC042A01D10CF0FF0C4FF00008D9
:1048F000220728D5702806D0009B83F0100353EAC6
:104900000A0305D00EE040228DF80420012208E0C1
:104910005CEA010206D030228DF804208DF80500F3
:1049200002229046009B83F0080353EA0A030AD14F
:104930005CEA010201D1620705D530228DF804201E
:104940004FF001087F1E582804D034A003900EA811
:1049500002900DE036A0F9E753466046009AFBF757
:104960008FFC84460398825C0298401E029002707D
:104970005CEA0100F0D1029806A9081A00F1200AA9
:10498000600702D524F4803400E00127574502DD9A
:10499000A7EB0A0000E0002000EB0A010090059858
:1049A0004144401A0590E00306D45B462146179A1D
:1049B000059800F0B3F90544002706E001A85A461F
:1049C000C05D179990476D1C7F1C4745F6DBE003DF
:1049D0000CD55B462146179A059800F09FF90544CF
:1049E00004E030205A46179990476D1C0099481EE4
:1049F00000900029F5DC08E0029802995A460078F8
:104A0000491C0291179990476D1CBAF10001AAF157
:104A1000010AF1DC65E10000092801003031323380
:104A200034353637383961626364656600000000EA
:104A300030313233343536373839414243444546D4
:104A40000000000000F058F90544761C307800287A
:104A50007FF4ECAD19B02846BDE8F08F620700D4B2
:104A6000062709F1070222F0070CFCE80223E146C1
:104A700003F000485FEA080C02D00FF2702C0DE042
:104A80005FEA045C02D50FF2682C07E05FEAC47CA1
:104A900002D00FF2602C01E0AFF2700C4FF0FF3843
:104AA00023F00043CDF850C065280CD006DC452823
:104AB00009D046281DD047283DD13DE0662818D0B2
:104AC00067287ED138E00021112F01DB112000E0A2
:104AD000781CCDE9000106A90EA8FFF7DDFCDDE991
:104AE0000F010E9A03910021009207F1010A04912F
:104AF0004DE04FF000400097CDE9011006A90EA847
:104B0000FFF7CAFCDDE90F0203920E9B1199002208
:104B1000DDF80CA00093049211B9791C00EB010A96
:104B2000B7EB0A0004D4C0F1FF3007F1010A04908A
:104B3000AAEB0700019044E0012F00DA01270021D1
:104B4000112F01DD112000E03846CDE9000106A952
:104B50000EA8FFF7A1FCDDE90F010E9A03910021D9
:104B600004910092BA4621070CD40399514500DA0A
:104B70008A46BAF1010F05DD009AAAF10101515CE4
:104B8000302908D0B84202DA10F1040F06DA012108
:104B9000CDE9011015E0AAF10101E9E7002805DCE3
:104BA000049901440491AAEB000102E0411C514523
:104BB00000DD8A460499401A401C01904FF00040E5
:104BC0000290200704D40198504501DBCDF8048001
:104BD00000208DF84F0002980DF14F07B0F1004F03
:104BE00025D02B200E9002984FF0020800280CDAF6
:104BF000404202902D200E9007E00A210298FBF718
:104C000019FC3031029007F8011DB8F10001A8F13C
:104C10000108F2DC02980028EFD1791E0E98087086
:104C2000307800F0200040F0450007F8020D12A88F
:104C3000C01B00F107081498007800B1012000EBB8
:104C40000A01019801EBE07105984144401A401EA9
:104C50000590E00306D45B462146179A059800F0BC
:104C60005DF805441498007818B15A461799904792
:104C70006D1CE00324D55B462146179A059800F089
:104C80004DF805441CE00498002807DBDDE903012A
:104C9000884203DD0098405C179901E017993020A5
:104CA0005A469047049805F10105401C049001986C
:104CB000401E019004D12E205A46179990476D1C32
:104CC000BAF10001AAF1010ADDDC05E017F8010BD9
:104CD0005A46179990476D1CB8F10001A8F10108D8
:104CE000F4DC5B462146179A0598ABE62D000000E0
:104CF0002B000000200000002DE9F04104460025B3
:104D00001E461746880404D405E039462020B047E3
:104D10006D1C641EF9D52846BDE8F0812DE9F041EF
:104D2000044600251E469046C80301D5302700E002
:104D30002027880404D505E041463846B0476D1C5D
:104D4000641EF9D52846BDE8F081000004490A68D0
:104D50005206FCD5024AC1B2121D11607047000014
:104D60000048004010B5FCF795F8FCF711FBFEF782
:104D7000A7FAFEF79DFFFCF7DBF8FBF725FFBDE880
:104D800010401420FDF7CEB9FDF77CFBFEF72AFE9C
:104D9000FEF7EEFBFEF7D2FCFEF764FBFEF7B2FC7B
:104DA000FEF758FCFEF78AFCFEF72AFB1448FDF7D5
:104DB00067FF1448FDF764FF02211348FCF790FDDC
:104DC000FBF7FEFD11480068C16841F02001C16099
:104DD0000F480068C16841F02001C160FFF7A8FAE0
:104DE0000CA20FA111A0FFF727FB18A0FFF724FBCF
:104DF000FEF75AFB00F047F8FFF7B4FFFCE70000AE
:104E0000780500203805002010050020100600203D
:104E1000D005002031313A30303A35310000000001
:104E2000466562203234203230323100536F66746E
:104E30007761726520776173206275696C642061A7
:104E4000742025732D2D2573210A00005379737466
:104E5000656D20616E642044657669636520696EC6
:104E6000697469616C204F4B210A000001460020E3
:104E7000842900D0C81C704710B500B9012000F08B
:104E8000FBFB002010BD10B500F080FC002010BD21
:104E90007FB50D4604464169B0F9080081B1A169AA
:104EA00071B1FFF7E3FFD4E905128DE80700D4E9FB
:104EB00000102B46226900F084FF039004B070BDFF
:104EC000FFF7D4FF03A9CDE90001208A2B4682B267
:104ED000D4E9001000F048FF012801D00020EDE7E0
:104EE0000398EBE72DE9F041184C0F46054666693B
:104EF0002068001D00F0D2FA38B9206890F82C1014
:104F000001208840A1698143A161681C07D137B1A4
:104F10002168BDE8F0410E48091D00F003BB206880
:104F20003544B5424560216805D2A068BDE8F0412E
:104F3000091D00F0DFBA6068091D00F0DBFA206B84
:104F4000854200D22563BDE8F0810000B400002056
:104F50008C0700202DE9F041054600F0EFFA2E4CB9
:104F60002069401C206120682C4F10B1E06940B3DB
:104F70002DE025602069012829D1002606EB860056
:104F800007EB800000F0A8FA761C072EF6D3234822
:104F90008C3000F0A1FA2148A03000F09DFA1F48A3
:104FA000B43000F099FA1D48C83000F095FA1B485B
:104FB000DC3000F091FA19488C3060601430A06049
:104FC00005E02068E96AC06A884200D82560E06A86
:104FD000401CE062E96A0120A26988401043A06198
:104FE00001EB810007EB8000291D00F09BFA00F027
:104FF000C5FAE06900280CD02068E96AC06A8842D6
:1050000007D207494FF080500860BFF34F8FBFF3BE
:105010006F8FBDE8F0810000B4000020B0060020D2
:1050200004ED00E030B4026C0B46002A0BD0C168DE
:105030001144C1608468A14201D30168C16030BCE1
:105040001846FBF74EB930BC70472DE9F041856B2F
:10505000174604460026026C82B1C7B1E068FBF730
:1050600040F9E168206C091AE1602268914202D29D
:10507000A168081AE060022F16D017E02068A8B9CE
:10508000A06800F03BFF06460020A0600EE06068CC
:10509000FBF727F9216C606808446060A1688842CA
:1050A00004D32068606001E005B16D1E6D1CA5632E
:1050B0003046BDE8F08110B5044690F8510058B173
:1050C00001280CD002280FD0502080F31188BFF3A4
:1050D0004F8FBFF36F8FFEE7206B00F063FA20461F
:1050E000BDE8104000F05EBA10BD000010484FF45B
:1050F0007051420706D0C01D0D4920F00700411A2B
:10510000C1F570510B4A00230144C2E9000308397C
:10511000103A21F0070111604B600B600B1AC0E9D7
:10512000001393604FF000405360D0607047000060
:10513000A007002000010020144E154CA6F1C8075E
:105140004FF08058DFF84C9012E000BF00F0F6F905
:10515000F068C568281D00F0A1F92069401E206193
:10516000E068401EE06000F009FA2846FFF7A3FF60
:10517000E0680028EAD138680128F9D9C9F8008028
:10518000BFF34F8FBFF36F8FF2E700007807002067
:10519000B400002004ED00E00346009829B102604D
:1051A000C0E90F31012100F067BC0060F8E72DE98C
:1051B000F0479A46DDE9098481466FF00303206BCE
:1051C00003EB82021044089E20F00707780707D0FF
:1051D000502080F31188BFF34F8FBFF36F8FFEE72E
:1051E000002561B1002023180A5C83F834200A5C92
:1051F00012B1401C1028F6D384F8435001E084F823
:105200003450072E00D30626E662C4E91165201D3E
:1052100000F06DF904F1180000F069F92461C6F19D
:1052200007006462A061E56484F850505246494624
:10523000384600F01DF92060B8F1000F01D0C8F821
:105240000040BDE8F087000030B5114900E011468C
:105250000A688242FBD34B685C18844203D14068E1
:1052600018444860084643681C18944209D1084C09
:10527000103C2468A24209D052681A4442600A686D
:1052800012680260814200D0086030BD0460F9E716
:105290000001002010B5044600F050F9A06B28B1C1
:1052A0005FF0000400F06AF9204610BD0124F9E720
:1052B00006484168096829B14168C968C9684968F0
:1052C000016370474FF0FF31FAE70000B40000209F
:1052D00008484068401C4FF0500080F3118804D00B
:1052E000BFF34F8FBFF36F8FFEE7BFF34F8FBFF357
:1052F0006F8FFEE708010020002150B10A4B426980
:105300009A420FD1806AA3F1280290420AD040B19C
:1053100008E0502080F31188BFF34F8FBFF36F8FE9
:10532000FEE70121084670478C0700202DE9F04177
:10533000044600F003F994F9455004F1240609E00D
:10534000606A48B1304600F025FE08B100F0C2F9AD
:105350006D1E6DB2002DF3DC4FF0FF3684F8456012
:1053600000F00CF900F0EAF894F9445004F1100749
:1053700009E0206948B1384600F00CFE08B100F0A1
:10538000A9F96D1E6DB2002DF3DC84F84460BDE810
:10539000F04100F0F3B800002DE9F0410546002788
:1053A00000F088FA314E306808B9FFF79FFEF068C8
:1053B00005424BD1C5B3083568070ED005F007008C
:1053C000C0F108000544680707D0502080F3118819
:1053D000BFF34F8FBFF36F8FFEE72DB37068854229
:1053E00034D82248103001460C6801E020460C46B3
:1053F0006168A94202D221680029F7D131688C4244
:1054000024D007682168016060680837411B1029B3
:105410000FD96019420708D0502080F31188BFF3DC
:105420004F8FBFF36F8FFEE710E041606560FFF7BD
:105430000BFF61687068401A7060B268904200D2D9
:10544000B060F06801430020C4E9000100F0DCFD19
:10545000780707D0502080F31188BFF34F8FBFF338
:105460006F8FFEE73846BDE8F0810000F0000020B5
:1054700010B5031F4FF080741C601B1F21F0010149
:105480001960191F044B0B6014390A60091F6FF073
:10549000020244380A6010BDD1520008D0E901323E
:1054A00001699A60D0E901235A604A68824201D1B9
:1054B00082684A60002202610868401E086008682D
:1054C00070470000034B036003F154000860802024
:1054D000106070477402002000F108014FF0FF32A5
:1054E000C0E90112C1600161002101607047002123
:1054F0000161704730B50B685A1C02D000F10802F8
:1055000002E0026904E02246546825689D42FAD907
:1055100053684B6099608A60516008610168491C5A
:10552000016030BD42684A6093688B60936859603F
:10553000916008610168491C01607047502080F348
:105540001188BFF34F8FBFF36F8F0A494868401C23
:10555000486001280CD10848006810F0FF0F07D000
:10556000502080F31188BFF34F8FBFF36F8FFEE79A
:10557000704700000801002004ED00E00849486879
:1055800028B1401E486001D180F311887047502037
:1055900080F31188BFF34F8FBFF36F8FFEE70000DA
:1055A0000801002070B5002827D0144DA0F1080490
:1055B0006168E868014207D1502080F31188BFF389
:1055C0004F8FBFF36F8FFEE722683AB1502080F310
:1055D0001188BFF34F8FBFF36F8FFEE78143616088
:1055E00000F068F960686968084468602046FFF761
:1055F0002BFEBDE8704000F007BD70BDF00000203C
:105600004FF0E02000210161816105494FF47A7279
:105610000968B1FBF2F1491E416107210161704740
:10562000B000002010B5FAF715FE114910280ED36E
:1056300000F1E02090F8F0030A78904207D2502061
:1056400080F31188BFF34F8FBFF36F8FFEE70948D8
:105650000068896800F4E060884207D9502080F330
:105660001188BFF34F8FBFF36F8FFEE710BD0000AF
:10567000080100200CED00E010B5020014D00F4826
:10568000806B38B1502080F31188BFF34F8FBFF388
:105690006F8FFEE700F00EF900211046FFF722FCA5
:1056A00000F0B2FC002807D105494FF08050086097
:1056B000BFF34F8FBFF36F8F10BD0000B400002009
:1056C00004ED00E002498A6A02604969416070475E
:1056D000B40000200149012048627047B400002056
:1056E00010B50C4650B1094909681831FFF702FF9F
:1056F0002046BDE810400121FFF7F4BB502080F3A5
:105700001188BFF34F8FBFF36F8FFEE7B400002007
:1057100070B504002BD01A4D286884422FD0FFF7B3
:105720000DFF2046FFF7E8FDE8B1201DFFF7B6FEAC
:10573000E06A0121AA6981401143A961114900EB86
:10574000800001EB8000211DFFF7ECFEE06A296874
:10575000C96A884207D30C494FF080500860BFF3F4
:105760004F8FBFF36F8FBDE87040FFF707BF50202A
:1057700080F31188BFF34F8FBFF36F8FFEE770BDCB
:10578000B4000020B006002004ED00E010B586B0A3
:105790000024039405AA04A903A80494FFF792FE29
:1057A000DDE903010094CDE9011000230EA11048AA
:1057B000059A00F006FB0F490028486311D05020DD
:1057C00080F31188BFF34F8FBFF36F8F4FF0FF301F
:1057D00008630120C8614C6106B0BDE8104000F0CC
:1057E000ADB806B010BD000049444C4500000000B3
:1057F00039510008B400002070B50446FFF79EFE42
:10580000294D04B92C68201DFFF748FE58B9E06AFD
:10581000264A00EB800152F8211021B90121814074
:10582000A8698843A861A06A18B104F11800FFF7BD
:1058300035FE1E48211DDC30FFF774FE94F8500041
:105840000026012801D184F85060FFF797FEE8692F
:1058500028B1FFF773FEFFF72BFDFFF78FFE2868D7
:10586000844213D1E86990B1A86B38B1502080F31D
:105870001188BFF34F8FBFF36F8FFEE70C494FF0D6
:1058800080500860BFF34F8FBFF36F8F70BD074824
:10589000DC3000682969884201D12E6070BDBDE806
:1058A000704000F00FB80000B4000020B0060020E7
:1058B00004ED00E00248816B491C816370470000E1
:1058C000B40000201448816B11B10121416270477E
:1058D000002141628169B1FA81F1C1F11F0101EB3F
:1058E00081020E4951F822306BB101EB820101F1C6
:1058F00008034A6852684A609A4201D152684A6075
:10590000D16801607047502080F31188BFF34F8F3A
:10591000BFF36F8FFEE70000B4000020B006002048
:1059200070B51C20FFF738FD040005D00025201DB0
:105930002560FFF7D1FD2576204670BD1CB53748A0
:105940000168374A914207D1502080F31188BFF394
:105950004F8FBFF36F8FFEE700683149491E8842C1
:1059600007D1502080F31188BFF34F8FBFF36F8FA3
:10597000FEE72C4908780190FF20087008788DF820
:1059800000009DF800009DF8002000F0F00090421B
:1059900007D0502080F31188BFF34F8FBFF36F8F74
:1059A000FEE79DF80000204B00F050001870072023
:1059B000986005E09DF8002052008DF80020401E00
:1059C0009DF800201206F5D49860032807D05020D7
:1059D00080F31188BFF34F8FBFF36F8FFEE74FF453
:1059E00040709860019808700C482030016841F4BC
:1059F00070010160016841F070410160FFF700FE35
:105A000000205860FAF7EEFB0848016841F0404179
:105A10000160FAF7D3FB00201CBD000000ED00E0A0
:105A200071C20F4100E400E00801002034EF00E003
:105A3000F8B517460E46050014D0DEB105FB06F09A
:105A40004830FFF7A9FC04000AD0002084F8460083
:105A500004F148023B46314628460094FFF79CFB80
:105A60002046F8BD502080F31188BFF34F8FBFF35D
:105A70006F8FFEE70020E3E770B50D46040025D0E8
:105A8000FFF75CFDD4E90F20216802FB0011A16043
:105A90000021A163216861600A46D4E90F01401E1C
:105AA00000FB0121E16021464FF0FF3001F8440F77
:105AB000487004F110008DB1FFF70EFD04F12400D1
:105AC000FFF70AFDFFF75AFD012070BD502080F35B
:105AD0001188BFF34F8FBFF36F8FFEE72169002955
