:020000040800F2
:10000000084800205D020008073A00087F34000815
:10001000053A000895090008C945000800000000DD
:100020000000000000000000000000009D0100082A
:10003000BD0D000800000000F9010008ED3B0008BC
:1000400077020008770200087702000877020008AC
:10005000770200087702000877020008770200089C
:10006000770200087702000877020008770200088C
:10007000770200087702000877020008770200087C
:10008000770200087702000861080008770200087C
:100090009909000877020008770200087702000833
:1000A000770200087702000877020008770200084C
:1000B00077020008013D0008770200087702000877
:1000C000770200087702000877020008770200082C
:1000D000770200087702000877020008DD42000876
:1000E000770200087702000877020008770200080C
:1000F00077020008770200087702000877020008FC
:1001000077020008770200087702000877020008EB
:10011000853F000877020008A13D0008ED3D00087A
:1001200077020008770200087702000877020008CB
:1001300077020008770200087702000877020008BB
:1001400077020008770200087702000877020008AB
:10015000770200087702000877020008770200089B
:10016000770200087702000877020008770200088B
:1001700077020008770200087702000800000000FC
:100180007702000877020008DFF80CD000F018FBB7
:100190000048004701500008084800202C4B19680F
:1001A0000868B0E8F04F80F30988BFF36F8F4FF015
:1001B000000080F3118870470000000008480068C4
:1001C000006880F308884FF0000080F3148862B65E
:1001D00061B6BFF34F8FBFF36F8F00DF00BF00BF6B
:1001E00008ED00E0DFF80C00016841F470010160E7
:1001F000704700BF88ED00E0EFF30980BFF36F8F19
:10020000134B1A681EF0100F08BF20ED108A20E96A
:10021000F04F106009B44FF0500080F31188BFF325
:100220004F8FBFF36F8F05F0E7FC4FF0000080F3B6
:10023000118809BC19680868B0E8F04F1EF0100F6B
:1002400008BFB0EC108A80F30988BFF36F8F704746
:10025000F4000020EFF30580704700000648804757
:1002600006480047FEE7FEE7FEE7FEE7FEE7FEE79B
:10027000FEE7FEE7FEE7FEE7E53C0008890100082F
:100280002DE9F05F0546002092469B4688460646CB
:10029000814640241BE0284641464746224600F05E
:1002A000DBF853465A46C01A914110D311461846FE
:1002B000224600F0C2F82D1A67EB01084F4622468D
:1002C0000120002100F0B9F817EB00094E41201E73
:1002D000A4F10104DFDC484631462A464346BDE826
:1002E000F09F40EA01039B0703D009E008C9121FF1
:1002F00008C0042AFAD203E011F8013B00F8013BE0
:10030000521EF9D27047D2B201E000F8012B491E0B
:10031000FBD270470022F6E710B513460A460446A2
:100320001946FFF7F0FF204610BD2DE9FE4F81EA88
:10033000030404F0004421F0004100944FF0000B4E
:1003400023F0004350EA01045ED052EA03045BD07C
:10035000C3F30A54C1F30A552C44A4F2F3340194B4
:10036000A0FB0254C1F3130141F48011C3F3130342
:1003700043F4801301FB024400FB034E840A970AF6
:1003800044EA815447EA8357A4FB076802958D0A23
:1003900005FB07854FEA932C04FB0C542705029DAF
:1003A0004FEA065847EA1637B5EB08056EEB070C1F
:1003B000870E920E47EA811742EA8312A7FB0201D9
:1003C000B6EB0B0164EB00042B0D43EA0C335E1813
:1003D00044EB1C50DA465146E7FB0201C5F3130417
:1003E0004FEA0B3343EA14534FEA0432019C43EAC9
:1003F0000603A4F10C040294009CCDE900B400F0C3
:100400004AF803B0BDE8F08F00200146F9E730B5A7
:100410000B46014600202022012409E021FA02F5C2
:100420009D4205D303FA02F5491B04FA02F528445C
:10043000151EA2F10102F1DC30BD202A04DB203AB6
:1004400000FA02F1002070479140C2F1200320FA27
:1004500003F3194390407047202A04DB203A21FA25
:1004600002F00021704721FA02F3D040C2F12002CD
:10047000914008431946704710B5141E73F10004EB
:1004800008DA401C41F1000192185B411A4301D186
:1004900020F0010010BD2DE9F04D92469B4611B1B0
:1004A000B1FA81F202E0B0FA80F220329046FFF712
:1004B000C4FF04460F4640EA0A0041EA0B015346D6
:1004C0005A46084313D0114653EA010019D0C8F127
:1004D00040025046FFF7C0FF05460E4650465946BB
:1004E0004246FFF7AAFF084305D0012004E020465A
:1004F0003946BDE8F08D0020054346EAE0762C43FE
:1005000037430A986305E40AA0EB08000022FD0ABD
:1005100044EA47540A3002D500200146E9E70105C4
:1005200010196941DDE9084500196941BDE8F04D40
:10053000A2E72DE9FE4F804681EA0300C00F0C467A
:10054000009021F0004123F00045B8EB0200A941E2
:1005500005D24046214690461C460B46024623F0F3
:100560000040104347D0270DC7F30A00C3F30A51D8
:100570000290401A019040286BDAC3F3130040F454
:10058000801B0098924620B10023D2EB030A63EB54
:100590000B0B01985946C0F140025046FFF74DFF42
:1005A00006460D4650465946019A00F01BF910EBDD
:1005B00008006141002487EA115284EAE7731A4374
:1005C00040D0009A62B3019A012A4FEA075215DC23
:1005D000001B61EB02014FF0004202EA0752CDE935
:1005E0000042001C41F5801132462B46FFF753FFB5
:1005F00003B0BDE8F08F40462146F9E7001B61EBF0
:100600000201001C41F5801300185B412018A2F57F
:10061000001747EB030140EAD570B6196D4111E0B0
:100620006D084FEA360645EAC0754FEA0752001BCF
:1006300061EB0201001C41F5801149084FEA3000CE
:100640000019514132462B4603B0BDE8F04FFFF789
:1006500013BF0098012240000023D0EB020263EB9D
:10066000E073009821464FEAE074B8EB000061EBBC
:100670000401E9E783F000435BE781F0004158E7BC
:100680002DE9F04D81EA030404F0004B21F0004510
:1006900014464FF0000A23F0004150EA050220D032
:1006A00054EA01021DD0C5F30A570246C5F31303ED
:1006B000C1F31300C1F30A5640F4801543F48013CC
:1006C000A7EB0608101BD64608F2FD3873EB0500B1
:1006D00002D308F1010801E092185B41B8F1000F64
:1006E00003DA00200146BDE8F08D00204FF48011B0
:1006F000064684460EE0171B73EB050705D3121B55
:1007000063EB050306434CEA010C49084FEA30004D
:1007100092185B4150EA0107EDD152EA030012D072
:1007200082EA040083EA0501084305D0101BAB41AF
:1007300006D20122002306E000224FF0004302E02F
:100740006FF0010253101AEB06004CEB085110EB4E
:100750000A0041EB0B01BDE8F04DFFF78DBEC1F380
:100760000A52C1F3130140F2FF3341F480119A425F
:1007700002DA00200146704740F233439A42A2F267
:10078000334202DC5242FFF767BEFFF756BE00005D
:1007900030B5041E71F1000404DB4FF00044404208
:1007A00064EB0101141E73F1000405DB1C464FF0DD
:1007B0000043524263EB0403994208BF904230BDAC
:1007C000064C074D06E0E06840F0010394E807009E
:1007D00098471034AC42F6D3FFF7DAFCA068000863
:1007E000C0680008202A06DBCB17203A41FA02F045
:1007F00043EAE07306E041FA02F3D040C2F120027E
:10080000914008431946704770B58C1810F8015B89
:1008100015F0070301D110F8013B2A1106D110F899
:10082000012B03E010F8016B01F8016B5B1EF9D19D
:100830002B0705D40023521E0DD401F8013BFAE723
:1008400010F8013BCB1A921C03E013F8015B01F88E
:10085000015B521EF9D5A142D8D3002070BD000023
:10086000014801F027B8000010050020464910B5E6
:100870004A6822F440324A604A6843681A434A6030
:1008800001684A6822F480724A6001684A68036914
:1008900042EA03224A6001684A6822F040724A60D4
:1008A00001684A6883681A434A6001688A6822F4CA
:1008B00000628A6001688A68C3681A438A60816A34
:1008C0006FF07062D14201688A6822F070628A60BB
:1008D00001688A680CD0836A1A438A6001688A6852
:1008E00022F040528A6001688A68C36A1A4301E0B4
:1008F00022F040528A6001688A6822F002028A600F
:1009000001688A68037E42EA43028A6090F82010F8
:10091000002901684A680FD042F400624A60016809
:100920004A6822F460424A6001684A68174C436A88
:1009300004EB43331A4301E022F400624A60016889
:10094000CA6A22F47002CA620168CA6A838B104CB8
:1009500004EB03531A43CA6201688A6822F40072E6
:100960008A6001688A6890F8303042EA43228A60DF
:1009700001688A6822F480628A6001688A68406936
:1009800042EA8020886010BD0023014000E0FFFFA4
:100990000000F0FFFEE70000014801F0B4BA0000DB
:1009A0007405002000B587B0134600220692A9B155
:1009B000082B00D908230090CDE903231220CDE9AC
:1009C00001028DF814200A4606AB6946084801F07A
:1009D00025F930B16FF0010007B000BD4FF0FF30D6
:1009E000FAE7034801F079FA0328FAD10020F3E787
:1009F000740500202DE9F0472F482F492F4C076838
:100A00000A6940F202480025A7F2024C04F11F09CE
:100A100004F1110304F12D00D1B2BEB2474525D037
:100A20000ADCA7F54077023F10D0012F12D0022F29
:100A300014D0032F39D115E0BCF1010F1ED0BCF149
:100A4000020F23D0BCF1030F2FD127E040F2023078
:100A500020800CE040F20330A08310E04FF441709E
:100A6000E08114E040F20533638518E02680A17030
:100A70001349E01CFFF735FCA58116E0A683A1779A
:100A80000F494846FFF72DFC25850EE0E6812174CD
:100A90000B491846FFF725FC658306E0668584F858
:100AA0002C100749FFF71DFCE586BDE8F047022141
:100AB000044801F0A1B800005805002044020020BD
:100AC000D80000207405002000B58BB00020012163
:100AD000CDE90601059000900190029003900490EA
:100AE0000E20CDE908106946084801F0FBF80028FF
:100AF000F9D1064801F004FC0028FAD1022103488C
:100B000001F07AF80028F9D10BB000BD740500207F
:100B1000094CA06858B10A2105F0D4FA0128F8D18F
:100B2000FFF768FF00F066FA00F0C2FDF1E7012070
:100B300004F0DCFAEDE70000AC00002030B5002046
:100B40000B4A01230446A2F1180100BFC0EBC00507
:100B500002EB4505AD89012D00EB400501EB450594
:100B600001D92B7100E02C71401C0328EEDD30BD53
:100B70004402002003F0DAF900F08AFA04F024FEBF
:100B800000F0D2F804F040FE012004F0AFFAF1E7E3
:100B90002DE9F047002602F0CBFFFFF7CFFF00F072
:100BA00075F800241D4FDFF878800125A14600BFAD
:100BB00004EB440007EB4000C17861B10126857069
:100BC0004178002923D18178012920D1457058F836
:100BD000241014A019E0017959B1012685704178DB
:100BE000A9B98178012912D1457058F8241018A0AC
:100BF0000BE0494680F802904278012A07D18278BA
:100C00002AB9417058F824101CA003F063FD641C3D
:100C1000032CCDDD3046BDE8F08700002C0200201B
:100C200098000020416E676C655374617475732081
:100C30006F66202573206973204572726F72210AD6
:100C4000506C6561736520436865636B210A000021
:100C500043616E537461747573206F662025732031
:100C60006973204572726F72210A506C65617365F9
:100C700020436865636B210A00000000257320692A
:100C800073204E6F726D616C210A00002DE9F047F0
:100C9000224F002407F14405A04605F1440600BF99
:100CA00007EB840090ED0C0A05EB8400D0ED000A00
:100CB000B4EE600AF1EE10FA29D004EB440006EB22
:100CC000400081464179491C417140790A2819D375
:100CD00004F07AFD1249FF20087100F0D9F99FED68
:100CE000110A0020A04203D005EB800181ED080A23
:100CF000401C0428F6DB00F017F804F085FD4046A0
:100D000049464871641C032CCADDBDE8F08704EB3A
:100D10004401404606EB4101F3E70000A401002036
:100D200000000020000000002DE9FC5FDFF8789053
:100D30004FF0080A00244FF0FF3809EB8407032620
:100D400097ED080A4546B5EEC00AF1EE10FA26D036
:100D50001648514630F814B06846FFF7DBFAE1B2A6
:100D6000684602F051FE06E0524669465846FFF7D3
:100D700019FE050002D5761EF6B2F5D27DB90C48F3
:100D800053465A4650F824100A4803F0A3FC514633
:100D9000684602F05DFE9FED080A87ED080A641CB4
:100DA000032CCADDBDE8FC9FE8010020B8660008FE
:100DB000980000209C670008000000007047704702
:100DC000002229B101291AD002291BD04FF4407208
:100DD0000E490B6823F440730B600B6813430B60E0
:100DE0000A6822F0F8020A600A68022303EBC000D6
:100DF00002430A60086840F48030086070474FF48E
:100E00008072E5E74FF40072E2E70000103C024018
:100E10001348016889050FD5016821F4007101604C
:100E2000016841F400610160016821F40061016022
:100E3000016841F400710160016849050FD501683E
:100E400021F480610160016841F480510160016812
:100E500021F480510160016841F4806101607047B4
:100E6000003C024008490A6822F440720A600A689D
:100E700042F004020A600A684FF4803343EA00201B
:100E800002430A6070470000103C0240064A1368A3
:100E900023F44073136013681360136843F0010375
:100EA0001360017070470000103C0240094910B502
:100EB0000C6824F440740C600C6844F440740C60BA
:100EC0000C6844F001040C600260BFF36F8F436054
:100ED00010BD0000103C0240074A136823F4407321
:100EE0001360136843F480731360136843F00103C5
:100EF0001360018070470000103C0240074A1368ED
:100F000023F440731360136843F400731360136891
:100F100043F001031360016070470000103C024081
:100F200017490868C206174805D5C26942F0100281
:100F3000C26110220A600A68920605D5C26942F0B1
:100F40000802C26120220A600A68520605D5C269F9
:100F500042F00402C26140220A600A68120605D506
:100F6000C26942F00202C26180220A600A689207E6
:100F700005D5C26942F02002C261022008607047B4
:100F80000C3C0240F406002070B5114904460020D4
:100F9000C86101F093FB06460E4D09E0601C07D0C6
:100FA00024B101F08BFB801BA04201D9032070BD4E
:100FB0002868C003F2D42868C00701D00120286047
:100FC000286810F0F200F2D0FFF7AAFF012070BDF0
:100FD000F40600200C3C024000EE901AF8EE600A85
:100FE00020EE200ABDEEC00A10EE101A0170090AA8
:100FF000417070472DE9F047234EDFF888900025B7
:10100000A6F1A008C5EBC50706EB4704A0780828A1
:1010100033D11E4830F8151036F8170081421CD124
:1010200099F80500401CC0B289F80500282814D39F
:10103000642089F80500E01C642102F017FB08EB2E
:101040008500824680ED000A601D642102F00EFBDF
:101050008AED040AA07808280FD10C4836F817103A
:10106000083030F81500884207D1E01C642102F0F6
:10107000FDFA08EB850080ED0C0A6D1C032DC1DD27
:10108000BDE8F0870000002044020020A8660008A8
:101090002DE9F05FF94CFF262DED048BA278062A8E
:1010A00021D02046B3EE0E8AD0ED090A237841788C
:1010B00038EE601A30EEC80A20274FF0300A4FF0A1
:1010C000310B4FF01009DFEDEE8A9FEDEE9AC078FC
:1010D000ED4DDFF8B883082B5ED2DFE803F0E9902E
:1010E000095EFE5D5DFDE670BDEC048BBDE8F09F22
:1010F000012A1BD1132805D0202871D0FF284BD1FD
:101100001320BAE095ED000AB4EEC10AF1EE10FA30
:1011100042DD70EEE80A95ED020AB4EEE00AF1EE67
:1011200010FAD9D202F0ACF900B1E770A078032828
:1011300032D1E07840282CD0412805D0422816D062
:10114000FF2829D1412098E0D4ED070A94ED091A2F
:1011500095ED030A70EEC10AB4EEE00AF1EE10FA62
:101160001ADD95F84300002816D1422085E0D4ED21
:10117000090A94ED061A95ED010A70EEC10AB4EE63
:10118000E00AF1EE10FA04D295F8410008B94020C7
:10119000E070607803286FD0F5E0012A1BD1142895
:1011A00005D020281CD0FF2818D1142065E095ED2B
:1011B000011AB4EEC01AF1EE10FA0FD278EEE00A7E
:1011C00095ED030AB4EEE00AF1EE10FA06DD02F046
:1011D00057F900B1E770A078022804D0D3E0FFE708
:1011E000012949D0CFE0E07830285BD0312831D0D8
:1011F000322844D0FF2827D129E032203DE0F2B93F
:10120000102822D0152803D0FF281DD1152034E046
:10121000D5ED000AF4EEC10AF1EE10FA14DDD5EDB9
:10122000010AF4EEC00AF1EE10FA0DD202F028F92C
:1012300028B14FF4FA7003F059FF84F80390A078B6
:101240000228D0D0042831D09DE0A9B19BE084F8D9
:1012500003B098E0D4ED090A94ED071A95ED020A5F
:1012600070EEC10AB4EEE00AF1EE10FA03D295F87E
:1012700042000028C1D086E075E0E07083E0D4ED44
:10128000060A94ED091A95ED000A70EEC10AB4EE53
:10129000E00AF1EE10FA76DD95F84000B8BB84F86C
:1012A00003A070E0607802285DD06CE05020E4E795
:1012B000012A68D19FED731A704A112892ED090A2C
:1012C00070EE410A31EE400A0AD0122820D02028C0
:1012D00086D0FF2857D101E032E02EE01120CCE784
:1012E00095ED021AB4EEE01AF1EE10FA4BD2D5EDFC
:1012F000030AF4EEC00AF1EE10FA44DD02F0C0F881
:1013000028B14FF4FA7003F0F1FE1220B5E73AE08D
:1013100095ED001AB4EEC01AF1EE10FA33DD95ED3A
:10132000010AB4EEE00AF1EE10FA2CD295F8400072
:1013300048BB95F84100A0B125E0012A11D022E078
:101340005348012A01D082B11DE095ED000A10EE4C
:10135000101A414507DC95ED010A10EE101A814282
:1013600001D8E7700FE0E6700DE095ED000A10EE91
:10137000101A4145F7DD95ED010A10EE101A814271
:10138000F1D984F803902079E17888423FF4ACAE3B
:10139000BBEE0E2A9FED3F0A3B48F0EE000A4430B8
:1013A000302928D018DCF1EE061AB7EE081AF1EE53
:1013B000002A132961D008DC10297AD01129DFED29
:1013C000361A6CD012291ED1A9E0142968D015292B
:1013D00067D0202917D1D0E0412932D006DC31294D
:1013E00012D032291DD040290DD123E0422959D0F5
:1013F000502908D1F3E0B3EE020A80ED000A94ED23
:10140000020A80ED080AF4E0D4ED060AC0ED000AF5
:1014100080ED010AD4ED070AF1EE600AC0ED020A80
:101420001BE0BAEE040A80ED020A94ED030A80ED97
:101430000A0ADEE0BBEE020A80ED010A94ED020A20
:1014400098E080ED000AD4ED060AF1EE600AC0EDE6
:10145000010A80ED020A94ED070A80ED030A94ED7B
:10146000040A80ED080A80ED090A94ED050A00BF20
:1014700080ED0A0A80ED0B0ABBE05FE0000000206F
:10148000000048420000D242A40100200000344283
:10149000000034C2000000000000D2C209E039E0C0
:1014A00057E05FE0B2EE040A80ED030A94ED030A10
:1014B000E0E79FED510A80ED000A9FED501A80EDA4
:1014C000011A80ED021A80ED030A2278012A12D057
:1014D0000022434605EB820696ED001A31EE401AD3
:1014E000B0EEC11A11EE106A9E4200EB82060BDAD2
:1014F000C6ED080A0AE0C0ED081AC0ED091AC0EDF1
:101500000A1AC0ED0B1A74E0C6ED082A521C042A10
:10151000E0DB6EE0C0ED021A80ED039A3DE080ED65
:10152000009AC0ED011A80ED020A80ED030A80EDF9
:10153000081A80ED091AB1EE0A0A99E79FED300A00
:1015400080ED008A80ED020A80ED081A80ED0A1A0B
:101550004FE080ED012AC0ED038A80ED091A80ED8D
:101560000B1A46E080ED008A80ED012AB0EE080AF1
:1015700080ED080A80ED090A3BE080ED000A80ED6D
:10158000010A227872B180ED020A072A80ED030A6F
:101590000DD0C0ED080AC0ED090AC0ED0A0AC0ED81
:1015A0000B0A26E0C0ED081AC0ED091A21E000225E
:1015B0004FEA080305EB820696ED000AB0EEC00A7A
:1015C00010EE106A9E4200EB820602DAC6ED080AAF
:1015D00001E0C6ED082A521C042AEBDB09E0B3EE59
:1015E000090A80ED000A80ED022AC0ED080AC0ED6C
:1015F0000A0A217178E500000000B4420000B4C27C
:10160000000048C201460020A1F100634FF480426F
:10161000934204D314480844904201D201207047F9
:1016200012480844904201D20220704710480844F2
:10163000904201D2032070470E480844B0F5803F25
:1016400001D2042070470C480A184FF4003082423F
:1016500001D205207047094A1144814201D2062077
:10166000704707207047000000C0FFF70080FFF7B9
:101670000040FFF70000FFF70000FEF70000FCF756
:10168000094C0A4D4FF4FA760221204601F009F880
:101690000421204601F005F82021284601F001F838
:1016A000304603F023FDEFE7000402400010024043
:1016B0002DE9F0471B4E00244FF00709B0780728AA
:1016C0002CD001F0DDFE10B3DFF85C8006F1340AA7
:1016D00004EB840000250AEB800700BF07EB8500C0
:1016E00096ED091AD0ED010A08EB850090ED000A8D
:1016F00001F0FCFE70B16D1C042DEFD374703470DA
:10170000B078844201D10620B070BDE8F087052092
:101710007070FAE7641CE4B2052CD9D386F8019006
:10172000F3E7000000000020A40100207047000043
:1017300078B50024009490F83C20012A19D00122A9
:1017400080F83C200A6807230568092A13D9EE6847
:101750000A3A02EB420293409E43EE600B788A689D
:101760000A3B03EB43039A400368DD682A43DA60CF
:1017700010E0022078BD2E6902EB420293409E43A6
:101780002E610B788A6803EB43039A4003681D6956
:101790002A431A614A681F23072A13D205686E6B11
:1017A000521E02EB820293409E436E630B790A88BD
:1017B0005B1E92B203EB83039A4003685D6B2A437E
:1017C0005A6327E005680D2A12D22E6BD21F02EB56
:1017D000820293409E432E630B790A88DB1F92B2EC
:1017E00003EB83039A4003681D6B2A431A6311E0DD
:1017F000EE6A0D3A02EB820293409E43EE620B7951
:101800000A880D3B92B203EB83039A400368DD6ABA
:101810002A43DA62164B0568144A9D4206D10D68C8
:10182000122D03D1556845F48005556005689D4229
:1018300018D10B68102B01D0112B13D1536843F42E
:1018400000035360096810290CD10A490A4A096843
:10185000B1FBF2F101EB8101490000E0491E00916A
:101860000029FBD180F83C40002078BD00230140D6
:1018700000200140F000002040420F0010B5084851
:1018800000F096F9074801F036FB054800F00FF824
:1018900005490880BDE81040024801F01BBB00006C
:1018A00010050020DC0500200600002070470068BD
:1018B000C06C704770B50446006801684268C1F3A7
:1018C0004001C2F3401251B34AB3216CC90603D49C
:1018D000216C41F400712164816811F0405F17D1DF
:1018E000217EA9B9C16A11F4700F02D0816849053F
:1018F0000ED4416821F020014160206C20F48070FA
:101900002064206CC00403D4206C40F001002064EB
:101910002046FFF7B3FF21686FF0120008602068CF
:1019200001684268C1F38001C2F3C01289B382B377
:10193000216CC90603D4216C41F4005121648168F3
:1019400011F4401F1ED1816B11F4401F02D0816839
:10195000490517D44168490514D4816811F0405FE6
:1019600010D1217E71B9416821F080014160206C65
:1019700020F480502064206CC00503D4206C40F01B
:10198000010020642046FFF7D1FE21686FF00C00B3
:10199000086020680168426811F0010FC2F38012EC
:1019A0000ED06AB10068C0070AD0206C40F48030C5
:1019B0002064204600F046F821686FF001000860BE
:1019C000206801684268C1F34011C2F380620029B7
:1019D0000DD0002A0BD0616C41F0020161646FF000
:1019E000200505602046FFF761FF2068056070BD97
:1019F00070B504004FF0000503D0206C002610B134
:101A000007E0012070BD204600F01EF8666484F8EF
:101A10003C60206CC00610D4206C20F4885040F04C
:101A2000020020642046FEF721FF6664206C20F04F
:101A3000020040F00100206400E0012584F83C60D1
:101A4000284670BD7047000010B586B004461421CA
:101A50006846FEF75FFC15492068884224D1144887
:101A60000021026842F480720260006800F4807015
:101A700005900F481438026842F0020202600068C4
:101A800000F002000590012000900320CDE9010143
:101A90006946084800F024FD00220A21122000F0C7
:101AA00095FE122000F084FE06B010BD002001401B
:101AB000443802400004024018B50021009190F81B
:101AC0003C20012A07D0012280F83C20026893685C
:101AD000DB0702D011E0022018BD936843F0010338
:101AE00093602C4A2C4B1268B2FBF3F202EB4202D9
:101AF00000E0521E0092002AFBD102689368DB07C7
:101B000046D0036C40F20164A34343F48073036442
:101B100053685B0505D5036C23F4005343F48053ED
:101B20000364036CDB0404D5436C23F006034364B5
:101B300000E0416480F83C10184B6FF02201116006
:101B400001684A68164C22434A6059680068CA0610
:101B5000144906D088421BD1816811F0405F13D030
:101B600016E08842F8D0104A904203D1D1F80423FD
:101B7000D206F1D00D4A90420AD1D1F8041301F0F7
:101B80001F011029E8D303E0816841F080418160A2
:101B9000002018BDF000002040420F00002301404B
:101BA00020000004002001400021014000220140EB
:101BB00090F83C1001290CD0012180F83C100168FC
:101BC0008A6822F001028A6001688A68D20702D01E
:101BD0000BE0022070474A68064B1A404A60016CCD
:101BE00021F4885141F001010164002180F83C108A
:101BF00008467047DFFFFFFB90F82020012A07D03E
:101C0000022A05D0416A41F48021416201207047D7
:101C1000006842690A43426100207047F0B590F8BD
:101C200020500468A468012D05D0022D03D0416A1C
:101C300041F4802153E014F0406F01D1E5004BD511
:101C4000C4F30164022C03D9416A41F4000146E067
:101C50000125A5401D608D684FF4C0739DB1CE680D
:101C600035434E6845EAC605066803EB0417F5518F
:101C70004FF4C275076805EB04150E697E51097DA6
:101C8000012905D009E00E88CD6845EA4655EBE705
:101C900001684E5946F480764E511179D2F80550BC
:101CA0004FF4C67641EA0525016806EB04168D510E
:101CB0001178D2F801204FF4C47541EA022102687C
:101CC00005EB04155151006803EB0411425842F032
:101CD000010242500020F0BD416A41F4001141620E
:101CE0000120F0BD10B590F82020012A07D0022A6B
:101CF00005D0416A41F480214162012010BD3B487A
:101D0000D0F8002242F00102C0F80022D0F80022F0
:101D100022F47C52C0F80022D0F800224B6A42EA3A
:101D20000322C0F800220A7D02F01F0301229A401C
:101D3000D0F81C329343C0F81C32CB69B3B9D0F849
:101D40000C329343C0F80C328C894B6864F31F4308
:101D50004C6900EBC404C4F840320C890B6864F38E
:101D60001F434C6900EBC404C4F84432CB69012B17
:101D700016D1D0F80C321343C0F80C320C884B68E3
:101D800064F31F434C6900EBC404C4F840320C896F
:101D9000CB6864F31F434C6900EBC404C4F84432BD
:101DA0008B69002BD0F804320ED01343C0F80432F4
:101DB0000B69002BD0F8143208D01343C0F814324A
:101DC000096A012904D008E09343EFE79343F5E75C
:101DD000D0F81C121143C0F81C12D0F8001221F0E8
:101DE0000101C0F80012002010BD00000064004096
:101DF000704730B590F82040012C05D0022C03D05C
:101E0000416A41F480215DE00468002955D02469CD
:101E1000A40754D04FF4D874056804EB01142D596D
:101E200015F00405956005682D594ED0ED085560F4
:101E300005682C5904F00204D4604FF4DA74056884
:101E400004EB01142D5905F00F05156105682D5996
:101E5000C5F30725956105682C59240C54614FF48E
:101E6000DC72046802EB0112A4581C700468A458C8
:101E7000240A5C700468A458240C9C700468A2585E
:101E8000120EDA704FF4DE72046802EB0112A458ED
:101E90001C710468A458240A5C710468A458240CBA
:101EA0009C710468A258120EDA71006881B1016950
:101EB00041F020010161002030BDE468A8E7416ADB
:101EC00041F400114162012030BD6D0D1560AFE796
:101ED000C16841F02001C160EDE70246002092F8A0
:101EE0002010012901D002290CD111688A68520101
:101EF00000D501208A68120100D5401C8968C900FC
:101F000000D5401C70472DE9F05F054600680024AD
:101F10004669D0F804908768D0F80CB0D0F810A0CB
:101F2000D0F81880F10748D0F90714D0012181605A
:101F3000B80703D5284600F010FA0CE0780702D560
:101F40004FF4006407E0380702D54FF4805402E0F4
:101F5000284600F001FAF80516D529684FF480707C
:101F60008860B80503D5284600F0F9F90CE078053B
:101F700002D544F4005407E0380502D544F4804407
:101F800002E0284600F0EAF9F80316D529684FF474
:101F900080308860B80303D5284600F0E2F90CE0F1
:101FA000780302D544F4004407E0380302D544F432
:101FB000803402E0284600F0D3F9300707D55FEA05
:101FC000CB6004D52968102044F40074C860700701
:101FD0004FF0080707D55FEA0B7004D52868C76083
:101FE000284600F059F9B00706D52868C068800770
:101FF00002D0284600F052F9700607D55FEACA60A1
:1020000004D52968102044F480640861B00607D51F
:102010005FEA0A7004D528680761284600F06CF969
:10202000F00606D528680069800702D0284600F02F
:1020300064F9B00308D55FEAC96005D529681020A6
:102040004860284600F05AF9F00307D55FEA0970A6
:1020500004D528684760284600F084F9300446D546
:102060005FEA497040D5F00504D55FEAC87001D039
:1020700044F00104B00504D55FEA887001D544F04E
:102080000204700504D55FEA487001D544F00404E9
:10209000300529D518F0700F26D008F070004028C0
:1020A00015D006DC102809D020280AD0302816D1F7
:1020B0000AE050280ED0602811D10EE044F0080448
:1020C0000DE044F010040AE044F0200407E044F07E
:1020D000400404E044F0800401E044F48074286883
:1020E000816921F070018161296804204860002C19
:1020F00005D0686A204368622846FFF779FEBDE88C
:10210000F09F70B5040003D094F8200010B104E0F3
:10211000012070BD204600F081F82068016821F0A0
:102120000201016000F0CAFA0546052604E000F04D
:10213000C5FA401B0A2811D8206840688007F6D4E9
:102140002068016841F00101016000F0B7FA05461E
:102150000BE000F0B3FA401B0A2806D9606A40F48D
:102160000030606284F82060D2E720684068C007D1
:10217000EFD0207E0128206801683DD021F0800149
:102180000160607E01282068016838D021F040019C
:102190000160A07E01282068016833D021F0200171
:1021A0000160E07E0128206801682ED041F0100116
:1021B0000160207F01282068016829D021F00801F2
:1021C0000160607F01282068016824D021F00401AB
:1021D0000160D4E902010843D4E904121143084321
:1021E0006168491E08432168C861002060620120BF
:1021F00084F82000002070BD41F08001C0E741F06C
:102200004001C5E741F02001CAE721F01001CFE706
:1022100041F00801D4E741F00401D9E710B586B0D8
:10222000044614216846FEF775F81849206888426C
:1022300029D117480021026842F00072026000684C
:1022400000F00070059012481038026842F0020257
:102250000260006800F0020005904FF440700090AA
:102260000220CDE901010320039009200490694672
:10227000084800F035F900220721142000F0A6FAE2
:10228000142000F095FA06B010BD00000064004074
:10229000403802400004024070470000104A08B570
:1022A0000121117000680F49884218D10F4A0E4B66
:1022B000002102F11C00FFF79CFD0D48006800287A
:1022C0000DD0694603F014FE0098002807D0094994
:1022D0004FF080500860BFF34F8FBFF36F8F08BD82
:1022E000A800002000640040D8000020580500200D
:1022F000B400002004ED00E0704770477047000014
:1023000070B5044690F82000012804D0606A40F4BB
:102310000020606218E0022084F820002068016834
:1023200021F00101016000F0C9F905460EE000BF8F
:1023300000F0C4F9401B0A2808D9606A40F4003054
:102340006062052084F82000012070BD206840688C
:10235000C007EDD1606270BD70477047704770472D
:1023600070477047704790F83510022903D08021DC
:10237000416501207047052180F83510006801682B
:1023800021F0010101600020704700002DE9F047B5
:10239000044622480F46017E01290AD001218046C9
:1023A00001764CF250394846FEF7EEFD020003D0AC
:1023B0002FE00220BDE8F0874FF0FF303860206842
:1023C000174D012801D0A6681CE0207C6168FEF74B
:1023D00049FD4846FEF7D8FD0246286820F0040073
:1023E000286014E0217C3046FEF7EAFC4846FEF700
:1023F000CBFD0200286820F0FA00286001D03E6082
:1024000005E0761CD4E902100844B042EAD8FEF791
:10241000FFFC002188F818101046CBE7F4060020D6
:10242000103C02400348016841F000410160002077
:1024300070470000103C02402DE9F0471B4E054656
:102440001446307E1F468946012808D00120307688
:102450004CF250384046FEF797FD18B114E00220C8
:10246000BDE8F0879DB1012D16D0022D19D022466E
:102470003B464846FEF71AFD4046FEF785FD0C49EF
:102480000A6822F001020A6000213176E8E7E1B231
:102490004846FEF7FBFCEFE7A1B24846FEF71CFDFD
:1024A000EAE721464846FEF729FDE5E7F406002065
:1024B000103C0240074900200A68002A09DA054A50
:1024C000054B0C3A1360054B13600968002900DACC
:1024D00001207047103C024023016745AB89EFCDD6
:1024E0002DE9F84F00224FF0010803254FF00F0EA1
:1024F0000B6808FA02F42340A3426ED14E68012E05
:1025000005D0022E03D0112E01D0122E12D18668D2
:102510004FEA420C05FA0CF7BE43CF6807FA0CF7F6
:10252000374387604668A6430C79C4F3001494408F
:1025300034434460C668570005FA07FC8C6826EAF5
:102540000C06BC403443C4604C68022C01D0122CF1
:1025500013D1D40800EB8404A346D4F82090540788
:102560004FEAD46A0EFA0AF629EA06090E6906FA53
:102570000AF646EA0906CBF8206006680C7926EAD6
:102580000C0604F00304BC40344304604C68E400CF
:1025900065D5364C266846F480462660246822F0CD
:1025A000030604F480440094314C3444A446D4F827
:1025B00008489607370F0EFA07F6B4432D4EB0427F
:1025C00001D1002624E02C4EB04201D101261FE0AB
:1025D0002A4EB04202D102261AE040E0284EB04214
:1025E00001D1032614E0274EB04201D104260FE0AA
:1025F000254EB04201D105260AE0244EB04201D159
:10260000062605E0224EB04201D1072600E008264A
:10261000BE402643CCF808681E4E34684F689C4381
:10262000FF0300D51C4334601A4C241D26684F68F4
:102630009E43BF0300D51E432660164E08363468FD
:102640004F689C43FF0200D51C433460114E0C368A
:1026500034684F689C43BF0200D51C433460521C51
:10266000102AFFF445AFBDE8F88F0000443802405F
:102670000030014000000240000402400008024017
:10268000000C0240001002400014024000180240FA
:10269000001C0240003C01400069084000D00120BD
:1026A0007047426931EA020200D109048161704732
:1026B0000AB1816170470904FBE7000001488068A6
:1026C00070470000E400002002488168027811444D
:1026D00081607047E40000200B4810B5016841F4A8
:1026E00000710160016841F480610160016841F49A
:1026F00080710160032000F089F8002000F006F8E6
:1027000000F03EF8002010BD003C024010B501462C
:1027100088B00022372000F059F8372000F048F840
:1027200013480024016841F020010160006805A9F8
:1027300000F020000690684600F014F900F032F92D
:102740000C494000B0FBF1F10C480B4A491E0260F5
:1027500040F2E732C0E90324C0E9011400F06CFB49
:1027600010B1012008B010BD044800F0B3FBF9E738
:102770004038024040420F0000140040B4060020E0
:102780000A4808B5016841F480410160006800F41E
:10279000804000900548001F016841F080510160B1
:1027A000006800F08050009008BD000044380240EE
:1027B000002809DB00F01F02012191404009800040
:1027C00000F1E020C0F8001170470000F0B40E4B9B
:1027D0001B680C46C3F30223C3F10705042D00D97F
:1027E0000425191D072901D2002300E0DB1E012664
:1027F00006FA05F1491E214099409E40761E16407A
:102800003143F0BC01F076BF0CED00E0064900F06A
:10281000070208684FF6FF03184040EA0220034A07
:1028200010430860704700000CED00E00000FA055E
:102830002DE9F0470E46050065D0DFF81481D8F881
:102840000000F7B200F00F00B04207D288F8007025
:10285000D8F8000000F00F00B04254D128683D4C79
:10286000810712D5400703D5206840F4E05020606E
:102870002878000703D5206840F460402060206875
:10288000A96820F0F000084320602878C0072DD008
:10289000304968680839012812D0022813D003286B
:1028A00011D00968890700292DDA216821F0030178
:1028B00001432160FFF702FF814641F2883A0EE0B2
:1028C00009688903EFE709688901ECE7FFF7F6FE7D
:1028D000A0EB0901514502D90320BDE8F08720682B
:1028E000696800F00C00B0EB810FEFD1D8F8001050
:1028F000404601F00F01B14207D90770006800F0AF
:102900000F00B04201D00120E7E72878400705D545
:102910002068E96820F4E050084320602878000728
:1029200006D52068296920F4604040EAC100206093
:1029300000F058F82168084AC1F30311515CC840FF
:102940000649086006480068FFF7E0FE0020C4E77B
:10295000003C02400838024084670008F000002074
:10296000E80000200F2202600C4A136803F0030302
:102970004360136803F0F0038360136803F4E053CB
:10298000C36012684FF4E05303EAD20202610448C4
:10299000006800F00F00086070470000083802402F
:1029A000003C02400448054900680968044AC1F334
:1029B0008221515CC8407047F00000200838024076
:1029C000946700080448054900680968044AC1F38F
:1029D0004231515CC8407047F00000200838024086
:1029E00094670008154810B5006810F00C021448F0
:1029F00013D01449042A0FD0082A0ED10F4C241FDB
:102A00002268236802F03F025B0207D52068C0F30A
:102A10008810A0FB010106E0084610BD2168C1F343
:102A20008811A1FB00010023FDF72AFC2168C1F3F6
:102A30000141491C4900B0FBF1F010BD08380240CB
:102A40000024F40040787D012DE9F84F04006ED099
:102A50002078DFF83C93C007A9F104054AD009F1BA
:102A600004000168C1F38101012908D00068C0F3A6
:102A7000810002280AD1D9F80000400206D5286852
:102A8000800337D560680028E1D033E06068B0F596
:102A9000803F10D0B0F5A02F286810D020F48030EF
:102AA0002860286820F4802028606068A8B1FFF7BB
:102AB00005FE06460DE0286840F48030F4E740F457
:102AC00080202860F7E700BFFFF7F8FD801B64282F
:102AD00073D828688003F7D50CE0FFF7EFFD0646B2
:102AE00005E000BFFFF7EAFD801B6428F0D82868E6
:102AF0008003F7D42078DFF89C8280074FF0000A2B
:102B00003ED5A348001D016811F00C0F08D00068E5
:102B1000C0F3810002280BD1D9F80000400207D48D
:102B20002868800716D5E068012800D112E02BE163
:102B3000E068B8B10120C8F80000FFF7BFFD064605
:102B400005E000BFFFF7BAFD801B0228C0D8286847
:102B50008007F7D52868216920F0F80040EAC10015
:102B600028600DE0C8F800A0FFF7A8FD064604E0C5
:102B7000FFF7A4FD801B02281FD828688007F7D420
:102B80002078000722D5824E83486169703671B182
:102B900001210160FFF792FD074604E0FFF78EFD7B
:102BA000C01B022809D830688007F7D50EE0C0F8AE
:102BB00000A0FFF783FD074605E082E0FFF77EFDFA
:102BC000C01B02287DD830688007F7D420784007E2
:102BD00068D5DFF8BCB100270BF13C0BDBF8000037
:102BE000C0000BD4DBF8001041F08051CBF800108E
:102BF000DBF80000012700F080500090674E30683D
:102C0000C00510D4306840F480703060FFF756FD86
:102C1000009005E0FFF752FD0099401A022850D8B5
:102C20003068C005F6D55A4EA0686C3601280FD022
:102C30000528306810D020F001003060306820F0A6
:102C400004003060A068B8B1FFF738FD00900FE0D5
:102C5000306840F00100F4E740F004003060F7E72E
:102C6000FFF72CFD0099411A41F28830814266D865
:102C700030688007F4D50EE0FFF720FD009007E0F4
:102C8000FFF71CFD0099411A41F28830814256D865
:102C900030688007F4D42FB1DBF8001021F08051A8
:102CA000CBF80010A069C8B33949091D0968C1F300
:102CB000810102294AD00228504607D0C8F8600096
:102CC00000E03CE0FFF7FAFC04463BE04746C8F86A
:102CD0006000FFF7F3FC064605E000BFFFF7EEFCDF
:102CE000801B02282BD828688001F7D4D4E907017B
:102CF0000843A16A2A4A490802EB0141626A41EA93
:102D00008211084394F82C1040EA0161C9F80010C0
:102D100001203866FFF7D2FC044606E036E000BF2B
:102D2000FFF7CCFC001B022809D828688001F7D5E2
:102D30002CE000BFFFF7C2FC001B022802D90320D1
:102D4000BDE8F88F28688001F4D41FE00128F7D08F
:102D5000D9F80000E26900F48001914214D1226A9E
:102D600000F03F0191420FD147F6C071626A014005
:102D7000914209D1A26A00F44031914204D1E16A42
:102D800000F07060884201D00120D9E70020D7E729
:102D90000438024000004742800E47420070004065
:102DA0000000FFFF7047704770B590F83C20012A83
:102DB00032D0012480F83C40022280F83D20036894
:102DC0005A689D6822F070060A6832435A60134BB5
:102DD00002689A4214D0B2F1804F11D0104B9A423F
:102DE0000ED0104B9A420BD00F4B9A4208D00F4B8B
:102DF0009A4205D00E4B9A4202D00E4B9A4204D111
:102E0000496825F080031943916080F83D40002116
:102E100080F83C10084670BD022070BD00000140E3
:102E20000004004000080040000C00400004014085
:102E3000004001400018004010B5040003D094F891
:102E40003D0010B107E0012010BD002084F83C00D7
:102E5000204600F00DF8022084F83D00211D206876
:102E600000F0CAFF012084F83D00002010BD0000E2
:102E700008B5154A0168154891420ED1016841F024
:102E8000020101600068002200F0020000900921A8
:102E90001D20FFF79BFC1D2010E00D4A914211D12F
:102EA000016841F0100101600068002200F010008C
:102EB000009008213620FFF789FC3620BDE8084045
:102EC000FFF776BC08BD0000000400404038024017
:102ED000001000400168CA6842F00102CA60006840
:102EE000816801F00701062903D0016841F0010162
:102EF0000160002070470168CA6822F00102CA60C0
:102F00000068016A41F21112114207D1016A921060
:102F1000114203D1016821F00101016000207047D6
:102F200070B5044690F83C00012817D0012584F8BC
:102F30003C50022084F83D002068826822F077022D
:102F400022F47F4282600868502830D00DDC2028AF
:102F50004DD005DC98B310283BD148E0022070BD6D
:102F6000302844D0402834D139E0602828D0702857
:102F700006D0B0F5805F2CD0B0F5005F29D10AE013
:102F8000CB68D1E90121206800F09AFF20688168B0
:102F900041F0770109E0CB68D1E90121206800F018
:102FA0008FFF2068816841F48041816011E0CA6828
:102FB0004968206800F096FF5021206807E016E07D
:102FC000CA684968206800F09EFF6021206800F010
:102FD00081FF84F83D50002084F83C0070BDCA6831
:102FE0004968206800F07EFF40212068EFE72268F2
:102FF00001461046EBE7704770B50446006801696A
:103000004FF00005C943890715D4C168C943890732
:1030100011D4E91E016101202077206880698007B2
:10302000204602D0FFF7E7FF04E000F098F82046C2
:1030300000F096F8257720680169C943490717D43D
:10304000C168C943490713D46FF00401016102202C
:1030500020772068806910F4407F204602D0FFF777
:10306000CAFF04E000F07BF8204600F079F82577ED
:1030700020680169C943090716D4C168C943090713
:1030800012D46FF008010161042020772068C06924
:103090008007204602D0FFF7AEFF04E000F05FF8A3
:1030A000204600F05DF8257720680169C943C9060C
:1030B00017D4C168C943C90613D46FF01001016168
:1030C000082020772068C06910F4407F204602D095
:1030D000FFF791FF04E000F042F8204600F040F8CE
:1030E000257720680169C943C90708D1C168C94368
:1030F000C90704D1891E0161204600F033F8206819
:103100000169C943090609D4C168C943090605D440
:103110006FF0800101612046FFF744FE20680169DD
:10312000C943490609D4C168C943490605D46FF0AB
:1031300040010161204600F01FF820680169C94381
:1031400089060BD4C168C943890607D46FF02001F2
:1031500001612046BDE87040FFF725BE70BD704795
:103160007047000000680349884201D1FFF7ACBAFC
:1031700070470000001400407047704770B5026847
:1031800004461068D168536910F00F0F52D003F055
:10319000010501F490762E435FD0C20705D0CA0521
:1031A00003D5E26B42F00102E263420705D5DA077C
:1031B00003D0E26B42F00202E263820705D5DA0730
:1031C00003D0E26B42F00402E263020707D501F08C
:1031D00020022A4303D0E26B42F00802E263E26B72
:1031E000002A33D0800604D5880602D5204600F098
:1031F00031FF20684069E16BC0F38010090700D4FB
:1032000028B3204600F018FF2068416949061AD506
:10321000416921F040014161606BA0B11B4901652A
:10322000606BFFF7A0F8002810D0606B016DBDE85F
:1032300070400847830610D58B060ED52046BDE8A2
:10324000704000F007BF2046FFF797FF70BD204693
:10325000FFF793FF0020E06370BD030606D50B0661
:1032600004D52046BDE8704000F0D4BF4006F3D539
:103270004806F1D5D168204621F04001D1602021D7
:1032800084F8391000F0FAF870BD000029400008F9
:1032900070B5040004D094F83900002510B106E0A0
:1032A000012070BD84F83850204600F023F8242017
:1032B00084F839002068C16821F40051C1602046BB
:1032C00000F014FF2068016921F490410161206839
:1032D000416921F02A0141612068C16841F400512F
:1032E000C160E563202084F8390084F83A000020AA
:1032F00070BD000070B586B0044614216846FDF725
:1033000009F82B48294E2568002429491038022243
:103310000323B54222D10C6844F400240C600968F0
:1033200001F400210591016841F004010160006889
:10333000694600F0040005909802CDE900020120E2
:10334000CDE90203082004901A48FFF7C9F80022CB
:1033500006213420FFF73AFA342023E0164EB54216
:1033600022D10D6845F480250D60096801F48021A3
:103370000591016841F0080101600068694600F0AC
:10338000080005904FF440708DE815000720CDE946
:1033900003300A48FFF7A4F8002205212720FFF791
:1033A00015FA2720FFF704FA06B070BD004C004064
:1033B000403802400008024000480040000C024033
:1033C00070472DE9F843044690F839001F46164629
:1033D0000D46202850D1B5B1AEB194F8380001287F
:1033E0004AD0012084F838004FF00008C4F83C802F
:1033F000212084F83900FFF761F9A6848146E6842C
:1034000084F8388026E00120BDE8F883E08C401E77
:10341000E084A0684B46B0F5805F4FF000024FF0AB
:1034200080012046009703D000F025FFE8B90DE0A9
:1034300000F021FFC8B928882168C0F3080048605F
:10344000206908B16D1C05E0AD1C03E0216815F88A
:10345000010B4860E08C0028D8D14B460022402167
:103460002046009700F007FF08B10320CCE720209A
:1034700084F839000020C7E70220C5E77047FEE75F
:103480002DE9F04701262DED028B0024144F9FED0E
:10349000158A154DA046B14605EB840097ED081A34
:1034A00090ED040AF0EE480A00F020F808B140461A
:1034B00000E04846291981F84000641C042CEBD335
:1034C0000021681890F84000012807D0491C042901
:1034D000F7D3BDEC028B3046BDE8F0870026F8E755
:1034E0000000002000000000A401002030EE600A6F
:1034F000B0EEC00AB4EEC10AF1EE10FA01D201201A
:1035000070470020704700F005F8052001F0EEFD3F
:10351000F9E700002DE9F047304C0126002520880E
:10352000DFF8BC804FF4004A4FF4FA67642805D9ED
:10353000218949B9B84201D9E670258051464046F3
:10354000FFF7AAF800B92580A0884FF480496428C5
:1035500017D92189D9B9B84207D9062000F0E2FA73
:1035600020A001F0B7F8E671A58049464046FFF774
:1035700093F860B9012000F0D5FA23A001F0AAF871
:1035800004E049464046FFF787F800B9A580208946
:103590001E2821D9B84209D9022000F0C3FA22A07E
:1035A00001F098F8E6722581A580258049464646B7
:1035B0004046FFF771F800280ED151463046FFF71C
:1035C0006BF8002808D1032000F0ACFA1FA001F02E
:1035D00081F82581A5802580BDE8F0879C02002028
:1035E000001002400A436F6E74726F6C20636F6D3F
:1035F0006D6E616420697320746F207475726E2023
:10360000726F756E640A00000A436F6E74726F6C9D
:1036100020636F6D6D6E616420697320746F207715
:10362000616C6B0A000000000A436F6E74726F6C6D
:1036300020636F6D6D6E616420697320746F2073F9
:10364000697420646F776E0A000000000A436F6E91
:1036500074726F6C20636F6D6D6E6164206973208E
:10366000746F2065726563740A0000000278407808
:1036700002EB002000B290FBF1F000EE100AB8EE71
:10368000C00A70477FB50024154800940194029445
:103690001249039401604FF48031C0E901140461C0
:1036A000047680F820400F49C0E90A140125C5615D
:1036B000C46080F830404561FEF79AF908B1FDF723
:1036C0007EFB0820CDE90005694602940448FEF718
:1036D0002FF8002801D0FDF772FB7FBD00200140CC
:1036E000100500200100000F0F4810B50D490160C2
:1036F0000621416000214FF4A0228160C0E903123D
:103700004FF4C0024261017641768176C17601773D
:103710004177FEF7F6FC002803D0BDE81040FDF726
:103720004EBB10BD006400407405002010B5B2B05F
:1037300000220C21012002F015FB2F4C00220C214D
:103740002060012002F00EFB606002F083FAE0606E
:1037500003220021012002F005FBA0601C22274962
:103760006846FCF7BEFD0021684601F0CBFC23490A
:1037700020611C221C3107A8FCF7B3FD002107A81B
:1037800001F0C0FC1D4960611C2238310EA8FCF715
:10379000A8FD00210EA801F0B5FC1849A0611C226B
:1037A000543115A8FCF79DFD002115A801F0AAFCD5
:1037B0001249E0611C2270311CA8FCF792FD002127
:1037C0001CA801F09FFC0D4920621C228C3123A80B
:1037D000FCF787FD002123A801F094FC07496062F3
:1037E0001C22A8312AA8FCF77CFD00212AA801F0A0
:1037F00089FCA06232B010BDAC000020C066000899
:10380000F0B587B014216846FCF784FD31480025E7
:10381000016841F010010160016801F0100105919B
:10382000016841F080010160016801F080010591AB
:10383000016841F002010160016801F00201059197
:10384000016841F008010160016801F0080105917B
:10385000016841F001010160016801F00101059179
:10386000016841F00401016000681B4E00F0040093
:103870000590002220213046FEF71AFF174F002244
:1038800076213846FEF714FF01242020CDE90004FC
:1038900069463046CDE90245FEF722FE7620CDE9A5
:1038A000000469463846CDE90245FEF719FE4FF49B
:1038B0004040CDE90005694602943046FEF710FE0F
:1038C000C020CDE90005694602940548FEF708FED0
:1038D00007B0F0BD30380240001002400004024042
:1038E000000C024010B586B00024174800940194E3
:1038F0000294039404941349059401605321C0E990
:10390000011440F2E731C0E903148461FFF794FA2F
:1039100008B1FDF754FA4FF48050009069460A4808
:10392000FFF7FEFA08B1FDF74AFA049404A9064825
:103930000594FFF739FA002801D0FDF740FA06B0E8
:1039400010BD0000000400409C0500201CB50024B0
:103950000F4800940D490194016042F2CF01C0E983
:10396000011442F20F718461C160FFF765FA08B17A
:10397000FDF725FA0094694605480194FFF714FA0B
:10398000002801D0FDF71BFA1CBD0000001000400C
:10399000DC0500200C4810B50A4901604FF4E13104
:1039A0004160002181600C22C160C0E90412816184
:1039B000C161FFF76DFC002803D0BDE81040FDF7A2
:1039C000FEB910BD004C0040340600200C4810B574
:1039D0000A4901604FF4E1314160002181600C220D
:1039E000C160C0E904128161C161FFF751FC002888
:1039F00003D0BDE81040FDF7E2B910BD004800401B
:103A000074060020FEE7704770B504460E4800EBD0
:103A10008105642195ED000A2046FDF7DDFA95ED5C
:103A2000040A6421A01CFDF7D7FA64219FED070A60
:103A3000201DFDF7D1FA642195ED080AA01DBDE80F
:103A40007040FDF7C9BA0000E80100200000000046
:103A500070B50D460646002404E0315D05A000F077
:103A600039FE641CAC42F8DBBDE8704003A000F0F6
:103A700031BE000030782530327820000A00000086
:103A800070B50B4800F034F80AA000F023FE134D87
:103A9000002400BF55F8241011A000F01BFE641C88
:103AA000042CF7DBBDE8704010A000F013BE00004E
:103AB00000000408546865206465766963652063C6
:103AC0006F6465206F662074686973206D61636838
:103AD000696E65206973203A000000007C020020B6
:103AE0003078253032782C20000000000A000000D9
:103AF00010B500220A4B114650F8214043F82140EE
:103B0000072902D250F821402244491C0829F3D346
:103B1000C069904201D0012010BD002010BD0000FE
:103B20007C0200200149087070470000300000202E
:103B30002DE9F0432748284EDFF8A09090ED000AC9
:103B4000072210EE107A264B0125002400F188018F
:103B5000B74205DC90ED000A10EE107A4F4502D90D
:103B60009A70CD7000E0CC7090ED010A1D4F10EE00
:103B7000108ADFF874C0B84505DC90ED010A10EE3C
:103B8000108AE04502D99A704D7200E04C7290EDB7
:103B9000020A10EE108AB84505DC90ED020A10EE1C
:103BA000107A674502D99A70CD7300E0CC7390ED1E
:103BB000030A10EE107AB74205DC90ED030A10EE0E
:103BC000100A484503D99A704D75BDE8F0834C75CD
:103BD000FBE70000A40100200000F042000070C1DB
:103BE00000000020000070410000F0C210B550201D
:103BF00080F31188BFF34F8FBFF36F8F02F0BEFBCE
:103C000018B104494FF080500860002080F31188FB
:103C100010BD000004ED00E00D4D07240D4E0E4FC9
:103C2000DFF83880FCF7B4FF68B134703C7088F876
:103C300000400020FFF776FF286901F077FF0A2097
:103C400001F054FAEEE7286901F0FCFEF7E7000006
:103C5000AC00002001000020020000200000002035
:103C600030B593B030216846FCF754FB14210CA802
:103C7000FCF750FB19480025016841F080510160B4
:103C8000006800F0805011901548016841F48041AF
:103C900001600068022400F480401190012000902F
:103CA000000401908001CDE90640192008904FF4EE
:103CB000A870CDE9090404200B906846FEF7C4FE05
:103CC0000CA90F2081E831004FF4A0500F90109004
:103CD00005210CA8FEF7ACFD13B030BD4038024002
:103CE000007000400548016841F47001016003491B
:103CF0004FF00060803908607047000088ED00E0F8
:103D00002DE9F041234E4FF4004841463046FEF77E
:103D1000C3FC0025204C4FF48047012804D13946CC
:103D20003046FEF7B9FC38B1E57039463046FEF74B
:103D3000B3FC012807D00BE0E0780028F5D12088FB
:103D4000401C2080F1E741463046FEF7A5FC38B123
:103D5000E57141463046FEF79FFC012807D00CE094
:103D6000E0790028F5D1A088401CA080F1E7394611
:103D70003046FEF791FC012805D0E572BDE8F04120
:103D80000648FFF739B9E07A0028F7D12089401CAE
:103D90002081F3E7001002409C0200209C050020D7
:103DA00010B50E48FDF788FE0D48007880B1002060
:103DB0000C4A0524C0EBC00102EB41018B895B1C5E
:103DC0009BB28B81052B00D38C81401C0328F1DD35
:103DD000BDE810400448FFF70FB9000010050020AF
:103DE000A800002044020020DC0500200148FFF765
:103DF00003B90000B4060020F0B50268254C264D3A
:103E0000264E274F274B4FF0804CA04209D06045EB
:103E100007D0A84205D0B04203D0B84201D09842A2
:103E200004D122F0700E4A6842EA0E02A0421BD072
:103E3000604519D0A84217D0B04215D0B84213D06F
:103E4000984211D0184DA8420ED0184DA8420BD060
:103E5000174DA84208D0174DA84205D0164DA842CC
:103E600002D0164DA84203D122F44075CA682A43F5
:103E70004D6922F080022A4302608A68C2620A68A1
:103E80008262A04201D0984201D1096901630121F7
:103E90004161F0BD00000140000400400008004006
:103EA000000C00400004014000400140004401407B
:103EB0000048014000180040001C00400020004065
:103EC00010B5846842EA032224F47F440A43224363
:103ED000826010BD826822F070020A4342F007013E
:103EE0008160704710B5036A046A24F0010404621B
:103EF000846924F0F00444EA021423F00A020A431D
:103F00008461026210BD10B5036A23F010030362DE
:103F10008369046A23F4704343EA023224F0A00365
:103F200043EA01118261016210BD0000144800F1F2
:103F30003002417805291FD0C378FF2B1CD113789C
:103F4000012B0AD1012904D0032902D0022902D071
:103F500003E0022100E0032181701178032901D1DF
:103F6000012181701178022901D10021817011781D
:103F7000062901D1042181700020107070470000D3
:103F800000000020F8B5234C21680868224DC0438A
:103F900080066FF0100611D44868C2B2688830B14C
:103FA0000C2832D21D490A54401C68802DE00E6056
:103FB0002168CB6843F01003CB60F3E70868C04387
:103FC000C00622D416480068F8B100236A46134997
:103FD00001F030FF69881148FCF79CF92068066001
:103FE0002068C16821F01001C160002068800C21A8
:103FF0000A4800F0EBF9009838B10A494FF08050B8
:104000000860BFF34F8FBFF36F8FBDE8F8400148E2
:10401000FFF7B4B834060020E00000202806002096
:10402000B000002004ED00E010B5806B0021C185D8
:10403000C184FFF7A2F810BD0168CA6822F490722B
:10404000CA6001684A6922F001024A61202180F8B1
:104050003A10704710B590F83A10222901D002208A
:1040600010BD8168B1F5805F11D001690029016838
:104070001FD0496801F07F03816A4A1C82620B707D
:10408000C18D491E0904090CC18518D02BE00269B5
:10409000816A002A0268526805D0D2B20A80816A19
:1040A000491C8162ECE7C2F308020A80816A891C1C
:1040B000F7E74A68816A4B1C83620A70E0E701688F
:1040C000CA6822F02002CA600168CA6822F48072BD
:1040D000CA6001684A6922F001024A61202180F821
:1040E0003A10FFF76DF9002010BD00002DE9F041F6
:1040F000044600680169E26821F4405111430161FE
:104100002169A068E2690843616911430843216895
:10411000CA6849F20C639A430243CA602068416945
:10412000A26921F4407111434161E06919276425B6
:104130003226B0F5004F354A354920684FF0000867
:1041400006D0884201D0904236D1FEF73BFC35E0E4
:10415000884201D0904202D1FEF734FC01E0FEF724
:1041600021FC61684A18A0FB070148EB0803FCF733
:1041700087F80146B0FBF5F00201B1FBF5F06FF0F6
:104180001803584301EB800006EBC000B0FBF5F0CC
:1041900000F0F80002EB4002B1FBF5F0584301EBF0
:1041A000800006EBC000B0FBF5F000F007002168CE
:1041B00010448860BDE8F081FEF7F4FB61688B0F66
:1041C0008A00A0FB0701FCF75BF80146B0FBF5F0A5
:1041D0006FF01802504301EB800006EB0010B0FBBB
:1041E000F5F000F0F002B1FBF5F002EB0012B1FBCC
:1041F000F5F06FF01803584301EB800006EB001058
:10420000B0FBF5F000F00F00D1E700000014014012
:104210000010014090F83910212901D00220704788
:104220008168B1F5805F016A0BD04A1C02620268A6
:1042300009785160C18C491E0904090CC1840ED053
:1042400017E009880268C1F308015160016900297B
:10425000016A02D0491C0162ECE7891CFBE7016896
:10426000CA6822F08002CA600068C16841F040015B
:10427000C160002070472DE9F041984617460E4670
:104280000446069D1DE0681C1BD02DB1FEF716FAF2
:10429000A0EB0800A84214D92068C16821F4D071AD
:1042A000C1602068416921F001014161202084F84A
:1042B000390084F83A00002084F838000320BDE873
:1042C000F0812068006836EA000004D00020B8427F
:1042D000D9D00020F3E70120F9E70000F8B5234C1E
:1042E00021680868224DC04380066FF0100611D483
:1042F0004868C2B2287830B10C2832D21D490A541D
:10430000401C28702DE00E602168CB6843F010033C
:10431000CB60F3E70868C043C00622D416480068A3
:10432000F8B100236A46134901F084FD2978114849
:10433000FBF7F0FF00202870206806602068C16845
:1043400021F01001C1600C210A4800F03FF80098EC
:1043500038B10A494FF080500860BFF34F8FBFF368
:104360006F8FBDE8F8400148FEF708BF74060020D3
:10437000E00000201C060020AC00002004ED00E05E
:1043800086B000200090104C0190029003900490A1
:104390000590206840B10122694601F0F7FD18B18F
:1043A0000C21684600F012F8606840B1012203A9B0
:1043B00001F0ECFD18B10C2103A800F007F805206E
:1043C00000F094FEE5E70000AC00002070B5044664
:1043D0000078682804D1601810F8010C162804D061
:1043E000002020606060A06070BDA078C12807D068
:1043F000C32820D0C528F7D1BDE87040FFF740BBE7
:10440000E279112AF0D001211748222A02D0332A5A
:104410000DD106E0227A0D2A09D00C2AE4D106211A
:1044200005E0217A0D2904D00C29DDD1022101708B
:1044300070BD0321FBE70DA000F04CF9174D0020E3
:104440002118C97845F82010401C0828F8DB1448CA
:104450000823124A1249103800F0DEF8E969BDE875
:10446000704010A000F036B9300000202A2A2A57E8
:10447000726974696E6720494420746F20466C61CC
:1044800073682C506C6561736520576169742E2EBA
:104490002E2E2E212A2A2A0A000000008401002044
:1044A000100004082A2A2A57726974696E67204F1F
:1044B0004B212053756D20436865636B2069732021
:1044C000307825780A0000002DE9F05F38484FF079
:1044D00068080E2680F800804670AA2100F1EC04DE
:1044E0008170E178C17021790171E17F417194F8A7
:1044F000201081710025C57105724FF0D00980F838
:1045000009904FF0070A80F80AA0617AC17294F806
:1045100025100173162747734FF47A7B01465B46DB
:104520000E222448FEF74DFFA4F1DE00BB2180F8E7
:10453000008046708170617CC170A17C017194F82B
:104540002D10417194F82E108171C571057280F89B
:10455000099080F80AA094F83310C1720173477370
:1045600001465B460E221348FEF72BFFA4F1D00054
:10457000CC2180F80080467081701021C170272204
:10458000027141718671F421C1710121017280F8BB
:10459000099080F80AA0FF21C572017347735B463A
:1045A000BDE8F05F01460E220248FEF70ABF000098
:1045B00058010020340600204FF47A74FFF784FF7E
:1045C000204600F093FDF9E7FEE700000E4A0721C0
:1045D000002051709170303210709FED0C0A0C4920
:1045E00001EB8002401C82ED000A0428F8D3002071
:1045F00001EB8002401C82ED040A0428F8D301225A
:1046000040210448FEF754B80000002000000000DC
:10461000A4010020000402402DE9F84F4FF00009EA
:104620001D4616468A4680464C46CDF80090FDF75A
:1046300041FF4046FCF7E6FF07465046FCF7E2FF25
:104640001B49C21B0220C1F80090521C8F60C1E9B7
:10465000032069461648FDF799FE10B10120BDE818
:10466000F88F00204746691E04E000BF56F820205E
:10467000401C14448842F9DBF461002411E000BFBF
:1046800056F82420002339460220FDF7D5FE00B954
:104690003F1D56F8242008EB840106A000F01AF80C
:1046A000641CAC42ECDBFDF7BDFE0020D7E7000048
:1046B000A8020020616464722069733A307825781A
:1046C0002C20646174612069733A30782530327827
:1046D0000A0000000FB4054B10B503A9044A029864
:1046E00000F0EAF810BC5DF814FB0000E94F000888
:1046F000540100200907090E002804DB00F1E02026
:1047000080F80014704700F00F0000F1E02080F8FE
:10471000141D704702E008C8121F08C1002AFAD110
:1047200070477047002001E001C1121F002AFBD131
:10473000704700002DE9FF5F82B00021DDE9043001
:10474000020DDDF840B0034318D044F61050A2F239
:10475000FF3242431514119801281FD0A5EB0B001E
:10476000401C5FEA000A4FF000064E4FDFF8389118
:10477000B046504615D5CAF1000413E01198012443
:104780004AA3012801D16FEA0B010298119AC0E9EE
:104790000031C0E9024206B0BDE8F09FCBF1000055
:1047A000DFE704460021404A491842EB0450CDE9B6
:1047B000001012E0E00707D032463B46404649462B
:1047C000FBF7B3FD8046894632463B461046194604
:1047D000FBF7ABFD06460F466410002CEAD1DDE97D
:1047E0000401DDE90023BAF1000F06DAFBF79DFDB5
:1047F00042464B46FBF799FD05E0FBF741FF424679
:104800004B46FBF73DFF04460E460022284BFBF7C4
:10481000BFFF03D84FF0FF30014607E00022254BD1
:1048200020463146FBF785FEFBF799FF102409E08F
:10483000002C0ADB0A220023FBF722FD039B303207
:104840001A55641E50EA0102F2D1641C039AC4F1A5
:1048500011031444119A012A03D0012208430DD1F7
:104860000AE0084304D000204FF0110B119072E7CA
:10487000A3EB0B056D1E0DE05B4504DD4FF0000260
:1048800005F1010504E003DA4FF00002A5F101058E
:10489000002AECD002981199C0E90231C0E9004524
:1048A00079E70000000014400000F03F30000000F5
:1048B0000000F0430000E03F2DE9FF4F95B09B461C
:1048C0008946064600250FE2252877D10024274691
:1048D000F84A0121059400E0044316F8013F203B0B
:1048E00001FA03F01042F7D130782A2811D06FF086
:1048F0002F033078A0F13002092A16D8059A44F027
:10490000020402EB820203EB42021044761C059083
:10491000EFE759F8042B0592002A03DA504244F4D9
:104920000054059044F00204761C30782E2816D1ED
:1049300016F8010F44F004042A280DD06FF02F025E
:104940003078A0F13003092B09D807EB870302EB7D
:104950004303C718761CF3E759F8047B761C3078BC
:104960006C280FD006DC4C2817D068280DD06A2898
:1049700014D104E0742810D07A280FD10DE044F44B
:1049800000140AE044F4801401E044F44014727806
:10499000824202D104F58014761C761C3078662899
:1049A0000BD013DC582877D009DC002875D04528B7
:1049B000F6D04628F4D047281AD19DE118E06328A4
:1049C00035D0642879D0652812D195E1702873D04C
:1049D00008DC6728F1D069286FD06E280DD06F28C9
:1049E00006D1B5E073282CD0752875D0782874D0FE
:1049F0005A46179990476D1C75E1C4F3025002287E
:104A000009D003280DD0D9F8001004280DD00D606E
:104A100009F1040967E1D9F80010EA17C1E9005269
:104A2000F6E7D9F800100D80F2E70D70F0E719F8FD
:104A3000041B8DF8001000208DF80100EA460120CB
:104A400003E059F804AB4FF0FF3061074FF000016D
:104A500002D40DE008F101018846B9420FDA804521
:104A6000F8DB1AF808100029F4D108E008F1010178
:104A700088468142FADB1AF808100029F6D1059819
:104A80005B46A0EB080721463846179A00F094FAD7
:104A9000284400EB080507E04DE029E10DE01AF895
:104AA000010B5A4617999047B8F10108F7D25B46B7
:104AB00021463846179A13E142E00A220092C4F3D5
:104AC00002524FF0000A022A08D059F804CB032AF8
:104AD0004FEAEC710AD00DE029E02AE009F1070164
:104AE00021F00702F2E802C1914609E00FFA8CFCBE
:104AF0004FEAEC71042A03D14FFA8CFC4FEAEC71B7
:104B0000002907DA0A460021DCF1000C61EB020102
:104B10002D2202E0220504D52B228DF8042001224B
:104B200003E0E20701D02022F7E7904659E00A218E
:104B300002E010220DE010214FF0000A00910BE07E
:104B400010224FF0000A44F004040827009203E00A
:104B500008224FF0000A0092C4F30252022A05D044
:104B600059F804CB0021032A08D009E009F1070114
:104B700021F00702F2E802C1914605E01FFA8CFC21
:104B8000042A01D10CF0FF0C4FF00008220728D5B1
:104B9000702806D0009B83F0100353EA0A0305D067
:104BA0000EE040228DF80420012208E05CEA0102B8
:104BB00006D030228DF804208DF8050002229046A0
:104BC000009B83F0080353EA0A030AD15CEA01025E
:104BD00001D1620705D530228DF804204FF001087D
:104BE0007F1E582804D034A003900EA802900DE038
:104BF00036A0F9E753466046009AFBF741FB84462E
:104C00000398825C0298401E029002705CEA0100E8
:104C1000F0D1029806A9081A00F1200A600702D50F
:104C200024F4803400E00127574502DDA7EB0A0099
:104C300000E0002000EB0A01009005984144401A72
:104C40000590E00306D45B462146179A059800F0CC
:104C5000B3F90544002706E001A85A46C05D17993C
:104C600090476D1C7F1C4745F6DBE0030CD55B4687
:104C70002146179A059800F09FF9054404E030207A
:104C80005A46179990476D1C0099481E00900029BC
:104C9000F5DC08E0029802995A460078491C029116
:104CA000179990476D1CBAF10001AAF1010AF1DCD5
:104CB00065E10000092801003031323334353637E0
:104CC0003839616263646566000000003031323358
:104CD00034353637383941424344454600000000F8
:104CE00000F058F90544761C307800287FF4ECADCC
:104CF00019B02846BDE8F08F620700D4062709F1F5
:104D0000070222F0070CFCE80223E14603F000480A
:104D10005FEA080C02D00FF2702C0DE05FEA045C31
:104D200002D50FF2682C07E05FEAC47C02D00FF2D4
:104D3000602C01E0AFF2700C4FF0FF3823F000431D
:104D4000CDF850C065280CD006DC452809D046288F
:104D50001DD047283DD13DE0662818D067287ED178
:104D600038E00021112F01DB112000E0781CCDE993
:104D7000000106A90EA8FFF7DDFCDDE90F010E9A80
:104D800003910021009207F1010A04914DE04FF0D8
:104D900000400097CDE9011006A90EA8FFF7CAFC54
:104DA000DDE90F0203920E9B11990022DDF80CA0A1
:104DB0000093049211B9791C00EB010AB7EB0A00C9
:104DC00004D4C0F1FF3007F1010A0490AAEB0700F8
:104DD000019044E0012F00DA01270021112F01DDAD
:104DE000112000E03846CDE9000106A90EA8FFF722
:104DF000A1FCDDE90F010E9A0391002104910092BC
:104E0000BA4621070CD40399514500DA8A46BAF113
:104E1000010F05DD009AAAF10101515C302908D08B
:104E2000B84202DA10F1040F06DA0121CDE90110CF
:104E300015E0AAF10101E9E7002805DC0499014425
:104E40000491AAEB000102E0411C514500DD8A46B5
:104E50000499401A401C01904FF000400290200736
:104E600004D40198504501DBCDF8048000208DF872
:104E70004F0002980DF14F07B0F1004F25D02B20C5
:104E80000E9002984FF0020800280CDA404202907F
:104E90002D200E9007E00A210298FBF7B8FA303176
:104EA000029007F8011DB8F10001A8F10108F2DC39
:104EB00002980028EFD1791E0E980870307800F023
:104EC000200040F0450007F8020D12A8C01B00F1B9
:104ED00007081498007800B1012000EB0A0101983E
:104EE00001EBE07105984144401A401E0590E00333
:104EF00006D45B462146179A059800F05DF80544F4
:104F00001498007818B15A46179990476D1CE00321
:104F100024D55B462146179A059800F04DF80544C4
:104F20001CE00498002807DBDDE90301884203DD6B
:104F30000098405C179901E0179930205A46904735
:104F4000049805F10105401C04900198401E019051
:104F500004D12E205A46179990476D1CBAF10001D2
:104F6000AAF1010ADDDC05E017F8010B5A46179992
:104F700090476D1CB8F10001A8F10108F4DC5B4614
:104F80002146179A0598ABE62D0000002B00000083
:104F9000200000002DE9F041044600251E4617467A
:104FA000880404D405E039462020B0476D1C641EF7
:104FB000F9D52846BDE8F0812DE9F04104460025E9
:104FC0001E469046C80301D5302700E020278804FC
:104FD00004D505E041463846B0476D1C641EF9D53E
:104FE0002846BDE8F081000004490A685206FCD555
:104FF000024AC1B2121D1160704700000048004013
:10500000FDF76AFBFEF72CFEFEF7FAFBFEF7DEFC6F
:10501000FEF76AFBFEF7BEFCFEF764FCFEF796FCAB
:10502000FEF730FB1348FDF755FF1348FDF752FF1D
:1050300002211248FCF7E0FDFBF746FD104800682E
:10504000C16841F02001C1600E480068C16841F0AC
:105050002001C160FFF7BAFA0BA20EA110A0FFF762
:1050600039FB17A0FFF736FBFEF760FB00F045F8B1
:10507000FEE70000DC0500209C05002074050020F0
:10508000740600203406002031303A30393A333289
:10509000000000004D617220313120323032310089
:1050A000536F6674776172652077617320627569EA
:1050B0006C642061742025732D2D2573210A000056
:1050C00053797374656D20616E64204465766963FD
:1050D0006520696E697469616C204F4B210A00007C
:1050E00001460020842900D0C81C704710B500B9C3
:1050F000012000F007FC002010BD10B500F0E0FC1E
:10510000002010BD7FB50D4604464169B0F9080086
:1051100081B1A16971B1FFF7E3FFD4E905128DE810
:105120000700D4E900102B46226901F0EEF8039045
:1051300004B070BDFFF7D4FF03A9CDE90001208AB8
:105140002B4682B2D4E9001001F0B2F8012801D058
:105150000020EDE70398EBE72DE9F041184C0F46EE
:10516000054666692068001D00F0DEFA38B920683F
:1051700090F82C1001208840A1698143A161681C2E
:1051800007D137B12168BDE8F0410E48091D00F094
:105190000FBB20683544B5424560216805D2A06840
:1051A000BDE8F041091D00F0EBBA6068091D00F090
:1051B000E7FA206B854200D22563BDE8F08100004C
:1051C000F4000020F00700202DE9F041054600F032
:1051D000FBFA2E4C2069401C206120682C4F10B136
:1051E000E06940B32DE025602069012829D100261F
:1051F00006EB860007EB800000F0B4FA761C072E61
:10520000F6D323488C3000F0ADFA2148A03000F0EE
:10521000A9FA1F48B43000F0A5FA1D48C83000F0C4
:10522000A1FA1B48DC3000F09DFA19488C30606010
:105230001430A06005E02068E96AC06A884200D89E
:105240002560E06A401CE062E96A0120A2698840AA
:105250001043A06101EB810007EB8000291D00F0E5
:10526000A7FA00F0D1FAE06900280CD02068E96ABA
:10527000C06A884207D207494FF080500860BFF3E8
:105280004F8FBFF36F8FBDE8F0810000F400002066
:105290001407002004ED00E030B4026C0B46002A35
:1052A0000BD0C1681144C1608468A14201D3016878
:1052B000C16030BC1846FBF714B830BC70472DE90C
:1052C000F041856B174604460026026C82B1C7B1D7
:1052D000E068FBF706F8E168206C091AE1602268D3
:1052E000914202D2A168081AE060022F16D017E09E
:1052F0002068A8B9A06801F0A5F806460020A060C3
:105300000EE06068FAF7EDFF216C606808446060A9
:10531000A168884204D32068606001E005B16D1E79
:105320006D1CA5633046BDE8F08110B5044690F8C9
:10533000510058B101280CD002280FD0502080F322
:105340001188BFF34F8FBFF36F8FFEE7206B00F024
:105350006FFA2046BDE8104000F06ABA10BD0000A8
:1053600010484FF47051420706D0C01D0D4920F07F
:105370000700411AC1F570510B4A00230144C2E9EC
:1053800000030839103A21F0070111604B600B60EF
:105390000B1AC0E9001393604FF000405360D060D7
:1053A000704700000408002040010020144E154CF6
:1053B000A6F1C8074FF08058DFF84C9012E000BF0C
:1053C00000F002FAF068C568281D00F0ADF9206908
:1053D000401E2061E068401EE06000F015FA28469B
:1053E000FFF7A3FFE0680028EAD138680128F9D95F
:1053F000C9F80080BFF34F8FBFF36F8FF2E7000053
:10540000DC070020F400002004ED00E003460098D3
:1054100029B10260C0E90F31012100F0C7BC006072
:10542000F8E72DE9F0479A46DDE9098481466FF0F7
:105430000303206B03EB82021044089E20F0070751
:10544000780707D0502080F31188BFF34F8FBFF348
:105450006F8FFEE7002561B1002023180A5C83F8F6
:1054600034200A5C12B1401C1028F6D384F8435053
:1054700001E084F83450072E00D30626E662C4E922
:105480001165201D00F079F904F1180000F075F99C
:105490002461C6F107006462A061E56484F850509D
:1054A00052464946384600F029F92060B8F1000F0D
:1054B00001D0C8F80040BDE8F087000030B51149C0
:1054C00000E011460A688242FBD34B685C188442B4
:1054D00003D1406818444860084643681C18944249
:1054E00009D1084C103C2468A24209D052681A44E1
:1054F00042600A6812680260814200D0086030BDD4
:105500000460F9E74001002010B5044600F05CF9A2
:10551000A06B28B15FF0000400F076F9204610BDC2
:105520000124F9E706484168096829B14168C9685A
:10553000C9684968016370474FF0FF31FAE700001E
:10554000F400002008484068401C4FF0500080F3F1
:10555000118804D0BFF34F8FBFF36F8FFEE7BFF307
:105560004F8FBFF36F8FFEE748010020002150B13D
:105570000A4B42699A420FD1806AA3F128029042F5
:105580000AD040B108E0502080F31188BFF34F8F5C
:10559000BFF36F8FFEE7012108467047F007002038
:1055A0002DE9F041044600F00FF994F9455004F15B
:1055B000240609E0606A48B1304600F0D9FF08B11E
:1055C00000F0CEF96D1E6DB2002DF3DC4FF0FF360A
:1055D00084F8456000F018F900F0F6F894F94450AA
:1055E00004F1100709E0206948B1384600F0C0FF17
:1055F00008B100F0B5F96D1E6DB2002DF3DC84F832
:105600004460BDE8F04100F0FFB800002DE9F04132
:105610000546002700F0E8FA314E306808B9FFF778
:105620009FFEF06805424BD1C5B3083568070ED020
:1056300005F00700C0F108000544680707D05020B6
:1056400080F31188BFF34F8FBFF36F8FFEE72DB349
:105650007068854234D82248103001460C6801E059
:1056600020460C466168A94202D221680029F7D180
:1056700031688C4224D0076821680160606808376F
:10568000411B10290FD96019420708D0502080F320
:105690001188BFF34F8FBFF36F8FFEE710E04160BB
:1056A0006560FFF70BFF61687068401A7060B26850
:1056B000904200D2B060F06801430020C4E90001CC
:1056C00000F090FF780707D0502080F31188BFF3D7
:1056D0004F8FBFF36F8FFEE73846BDE8F0810000C3
:1056E000300100200449086818B10868826C521C17
:1056F0008264086870470000F400002010B5031FA2
:105700004FF080741C601B1F21F001011960191FEC
:10571000044B0B6014390A60091F6FF00202443811
:105720000A6010BD45550008D0E9013201699A6050
:10573000D0E901235A604A68824201D182684A60F6
:10574000002202610868401E086008687047000077
:10575000034B036003F15400086080201060704721
:10576000BC02002000F108014FF0FF32C0E9011235
:10577000C160016100210160704700210161704733
:1057800030B50B685A1C02D000F1080202E0026931
:1057900004E02246546825689D42FAD953684B605C
:1057A00099608A60516008610168491C016030BDE0
:1057B00042684A6093688B609368596091600861A1
:1057C0000168491C01607047502080F31188BFF3C5
:1057D0004F8FBFF36F8F0A494868401C486001280B
:1057E0000CD10848006810F0FF0F07D0502080F35C
:1057F0001188BFF34F8FBFF36F8FFEE77047000034
:105800004801002004ED00E00849486828B1401E26
:10581000486001D180F311887047502080F31188CF
:10582000BFF34F8FBFF36F8FFEE7000048010020EA
:1058300070B5002827D0144DA0F108046168E8680D
:10584000014207D1502080F31188BFF34F8FBFF37F
:105850006F8FFEE722683AB1502080F31188BFF3C2
:105860004F8FBFF36F8FFEE78143616000F0BCF99B
:1058700060686968084468602046FFF71FFEBDE85D
:10588000704000F0AFBE70BD300100204FF0E0204E
:1058900000210161816105494FF47A720968B1FB09
:1058A000F2F1491E4161072101617047F0000020BB
:1058B00010B5FAF7CFFC114910280ED300F1E02003
:1058C00090F8F0030A78904207D2502080F31188B4
:1058D000BFF34F8FBFF36F8FFEE7094800688968F9
:1058E00000F4E060884207D9502080F31188BFF3AC
:1058F0004F8FBFF36F8FFEE710BD000048010020FF
:105900000CED00E010B5020014D00F48806B38B1E8
:10591000502080F31188BFF34F8FBFF36F8FFEE7E6
:1059200000F062F900211046FFF716FC00F05AFE65
:10593000002807D105494FF080500860BFF34F8F12
:10594000BFF36F8F10BD0000F400002004ED00E0F5
:1059500002498A6A0260496941607047F400002088
:105960000149012048627047F400002010B50C4640
:1059700050B1094909681831FFF702FF2046BDE818
:1059800010400121FFF7E8BB502080F31188BFF3DE
:105990004F8FBFF36F8FFEE7F400002070B5040057
:1059A0004BD0A26CA2B1606C884200D30146E06A81
:1059B000884242D0012A40D1204D2A6894420FD11A
:1059C000502080F31188BFF34F8FBFF36F8FFEE736
:1059D000502080F31188BFF34F8FBFF36F8FFEE726
:1059E000E162A269002A02DBC1F10701A161144E44
:1059F00000EB8000616906EB800081421DD1201D13
:105A0000FFF792FE012150B9E06A00EB800256F8E0
:105A1000222022B9AA6901FA00F08243AA61E06A51
:105A2000AA6981401143A96100EB800006EB800068
:105A3000211DBDE87040FFF7BBBE70BDF400002023
:105A40001407002070B504002BD01A4D286884423A
:105A50002FD0FFF7B9FE2046FFF788FDE8B1201DE3
:105A6000FFF762FEE06A0121AA6981401143A96142
:105A7000114900EB800001EB8000211DFFF798FE2B
:105A8000E06A2968C96A884207D30C494FF0805000
:105A90000860BFF34F8FBFF36F8FBDE87040FFF713
:105AA000B3BE502080F31188BFF34F8FBFF36F8FC9
:105AB000FEE770BDF40000201407002004ED00E0B4
:105AC00010B586B00024039405AA04A903A8049481
:105AD000FFF73EFEDDE903010094CDE9011000234C
